:1000000000000020FD040000D7580000DD5800006B
:10001000E3580000E9580000EF580000000000001D
:100020000000000000000000000000006D0500005E
:10003000F5580000000000001306000073060000E1
:1000400095570000A3570000B1570000BF570000AC
:10005000CD570000DB570000E9570000F7570000BC
:100060000558000013580000215800002F580000C8
:100070003D5800004B5800005958000067580000D8
:1000800075580000FB580000015900000759000096
:100090000D59000013590000195900001F590000A4
:1000A000255900002B590000315900003759000034
:1000B0003D59000043590000495900008358000091
:1000C0004F59000091580000555900009F580000FA
:1000D0005B590000AD5800006159000067590000ED
:1000E0006D59000073590000795900007F590000D4
:1000F000855900008B590000915900009759000064
:100100000D0500000D0500000D0500000D050000A7
:100110009D590000A3590000A9590000AF590000E3
:10012000B5590000BB590000C1590000C759000073
:10013000CD590000D3590000D9590000DF59000003
:10014000E5590000EB590000BB580000F1590000D0
:10015000C9580000F7590000FD590000035A00007B
:10016000095A00000F5A0000155A00001B5A0000DF
:10017000215A0000275A00002D5A0000335A00006F
:10018000395A00000D0500000D0500000D050000A6
:100190000D0500000D0500000D0500000D05000017
:1001A0000D0500000D0500000D0500000D05000007
:1001B0000D0500000D0500000D0500000D050000F7
:1001C0000D0500000D0500000D0500000D050000E7
:1003F0000D0500000D0500000D050000FFFFFFFFCB
:10040000FFFFFFFFFFFFFFFFFFFFFFFFFEFFFFFFFD
:1004400010B5054C237833B9044B13B10448AFF30E
:1004500000800123237010BD280E00200000000042
:10046000E8D6000008B5034B1BB103490348AFF3BE
:10047000008008BD000000002C0E0020E8D600001F
:10048000A3F5803A704700BF174B002B08BF134BF2
:100490009D46FFF7F5FF00218B460F461348144A8F
:1004A000121A09F0FBFD0E4B002B00D098470D4BA4
:1004B000002B00D098470020002104000D000D48BB
:1004C000002802D00C4809F0C5FA09F009FB200009
:1004D000290002F0A3FF09F0C9FA00BF00000800DC
:1004E00000000000755C000000000020280E0020C5
:1004F00014570020559A00008D9A000072B604F03F
:1005000061FD04F0F7FC62B6FFF7BEFFFFF7FEBF28
:1005100080F309887047EFF309807047684680F3DD
:1005200009885A480078C00714BF0220032080F3CE
:1005300014887047DFF858C1EFF305831B0618BF16
:100540006047EFF31483DB0708BF604700DF7047A5
:10055000DFF840C1EFF305831B0618BF6047EFF3D8
:100560001483DB0708BF604700DF7047EFF30980A3
:10057000816911F8021CE1BB90E80F1010B5E0474B
:10058000BDE81040EFF3098C8CE80700424B93E87C
:100590000600914208BF704741B91EF0100F16D1F6
:1005A0003E49086820F00100086010E01EF0100FBE
:1005B00006BF2CED108A0120002081F825002CE9CF
:1005C000F00FC1F828C00CB406F0F2FD0CBC1A60A4
:1005D000D2F828C0BCE8F00F92F8250000280EBF22
:1005E0006FF0020E6FF0120EBCEC108A8CF30988CB
:1005F000704710B52A4A1268914209D8294C54F81C
:10060000214090E80F10A047EFF3098C8CE80F0011
:1006100010BD10B506F03EFDBDE810401E4B93E83E
:100620000600914208BF7047EFF3098C1EF0100FCF
:1006300006BF2CED108A0120002081F825002CE94E
:10064000F00FC1F828C00CB406F0B2FD0CBC1A6063
:10065000D2F828C0BCE8F00F92F8250000280EBFA1
:100660006FF0020E6FF0120EBCEC108A8CF309884A
:10067000704710B506F07EFDFFF7CEBF10B506F04F
:1006800077FD06F077FDFFF7C7BF0000ACC800009C
:10069000216A00003D6A0000B056002034EF00E0FF
:1006A00000000000FCFFFFFF81F0004102E000BFFE
:1006B00083F0004330B54FEA41044FEA430594EA22
:1006C000050F08BF90EA020F1FBF54EA000C55EA5D
:1006D000020C7FEA645C7FEA655C00F0E2804FEA2E
:1006E0005454D4EB5555B8BF6D420CDD2C4480EA10
:1006F000020281EA030382EA000083EA010180EA40
:10070000020281EA0303362D88BF30BD11F0004F8D
:100710004FEA01314FF4801C4CEA113102D04042C3
:1007200061EB410113F0004F4FEA03334CEA1333FE
:1007300002D0524263EB430394EA050F00F0A78016
:10074000A4F10104D5F1200E0DDB02FA0EFC22FA11
:1007500005F2801841F1000103FA0EF2801843FA05
:1007600005F359410EE0A5F120050EF1200E012AF6
:1007700003FA0EFC28BF4CF0020C43FA05F3C01834
:1007800051EBE37101F0004507D54FF0000EDCF1AD
:10079000000C7EEB00006EEB0101B1F5801F1BD356
:1007A000B1F5001F0CD349085FEA30004FEA3C0C5A
:1007B00004F101044FEA445212F5800F80F09A8050
:1007C000BCF1004F08BF5FEA500C50F1000041EB54
:1007D000045141EA050130BD5FEA4C0C404141EB58
:1007E0000101013C28BFB1F5801FE9D291F0000F53
:1007F00004BF01460020B1FA81F308BF2033A3F102
:100800000B03B3F120020CDA0C3208DD02F1140CF8
:10081000C2F10C0201FA0CF021FA02F10CE002F133
:100820001402D8BFC2F1200C01FA02F120FA0CFC2C
:10083000DCBF41EA0C019040E41AA2BF01EB045175
:10084000294330BD6FEA04041F3C1CDA0C340EDC73
:1008500004F11404C4F1200220FA04F001FA02F3B6
:1008600040EA030021FA04F345EA030130BDC4F174
:100870000C04C4F1200220FA02F001FA04F340EA69
:100880000300294630BD21FA04F0294630BD94F01A
:10089000000F83F4801306BF81F480110134013D01
:1008A0004EE77FEA645C18BF7FEA655C29D094EA72
:1008B000050F08BF90EA020F05D054EA000C04BFF0
:1008C0001946104630BD91EA030F1EBF00210020DB
:1008D00030BD5FEA545C05D14000494128BF41F07A
:1008E000004130BD14F580043CBF01F5801130BDDE
:1008F00001F0004545F0FE4141F470014FF0000069
:1009000030BD7FEA645C1ABF194610467FEA655C19
:100910001CBF0B46024650EA013406BF52EA0335BB
:1009200091EA030F41F4002130BD00BF90F0000FA9
:1009300004BF0021704730B54FF4806404F13204E5
:100940004FF000054FF0000150E700BF90F0000F9E
:1009500004BF0021704730B54FF4806404F13204C5
:1009600010F0004548BF40424FF000013EE700BF95
:1009700042004FEAE2014FEA31014FEA02701FBF25
:1009800012F07F4393F07F4F81F06051704732F057
:100990007F4208BF704793F07F4F04BF41F40021AE
:1009A000704730B54FF4607401F0004521F000410C
:1009B0001CE700BF50EA010208BF704730B54FF096
:1009C00000050AE050EA010208BF704730B511F097
:1009D000004502D5404261EB41014FF4806404F1CF
:1009E00032045FEA915C3FF4D8AE4FF003025FEA55
:1009F000DC0C18BF03325FEADC0C18BF033202EBD9
:100A0000DC02C2F1200300FA03FC20FA02F001FA32
:100A100003FE40EA0E0021FA02F11444BDE600BFD5
:100A200070B54FF0FF0C4CF4E06C1CEA11541DBF84
:100A30001CEA135594EA0C0F95EA0C0F00F0DEF84F
:100A40002C4481EA030621EA4C5123EA4C5350EA34
:100A5000013518BF52EA033541F4801143F4801385
:100A600038D0A0FB02CE4FF00005E1FB02E506F016
:100A70000042E0FB03E54FF00006E1FB03569CF06B
:100A8000000F18BF4EF0010EA4F1FF04B6F5007F71
:100A900064F5407404D25FEA4E0E6D4146EB0606E3
:100AA00042EAC62141EA55514FEAC52040EA5E506C
:100AB0004FEACE2EB4F1FD0C88BFBCF5E06F1ED816
:100AC000BEF1004F08BF5FEA500E50F1000041EB4D
:100AD000045170BD06F0004646EA010140EA0200FA
:100AE00081EA0301B4EB5C04C2BFD4EB0C0541EA1C
:100AF000045170BD41F480114FF0000E013C00F331
:100B0000AB8014F1360FDEBF002001F0004170BD54
:100B1000C4F10004203C35DA0C341BDC04F114046D
:100B2000C4F1200500FA05F320FA04F001FA05F2F9
:100B300040EA020001F0004221F0004110EBD370C6
:100B400021FA04F642EB06015EEA430E08BF20EAF2
:100B5000D37070BDC4F10C04C4F1200500FA04F395
:100B600020FA05F001FA04F240EA020001F0004127
:100B700010EBD37041F100015EEA430E08BF20EA9A
:100B8000D37070BDC4F1200500FA05F24EEA020EE2
:100B900020FA04F301FA05F243EA020321FA04F011
:100BA00001F0004121FA04F220EA020000EBD370C8
:100BB0005EEA430E08BF20EAD37070BD94F0000FC8
:100BC0000FD101F00046400041EB010111F4801FFC
:100BD00008BF013CF7D041EA060195F0000F18BFAD
:100BE000704703F00046520043EB030313F4801FE9
:100BF00008BF013DF7D043EA0603704794EA0C0FA3
:100C00000CEA135518BF95EA0C0F0CD050EA4106B8
:100C100018BF52EA4306D1D181EA030101F0004135
:100C20004FF0000070BD50EA410606BF104619465D
:100C300052EA430619D094EA0C0F02D150EA013669
:100C400013D195EA0C0F05D152EA03361CBF1046AA
:100C500019460AD181EA030101F0004141F0FE4149
:100C600041F470014FF0000070BD41F0FE4141F4CD
:100C7000780170BD70B54FF0FF0C4CF4E06C1CEACD
:100C800011541DBF1CEA135594EA0C0F95EA0C0F82
:100C900000F0A7F8A4EB050481EA030E52EA03353D
:100CA0004FEA013100F088804FEA03334FF080555E
:100CB00045EA131343EA12634FEA022245EA11158B
:100CC00045EA10654FEA00260EF000419D4208BF3C
:100CD000964244F1FD0404F5407402D25B084FEAE9
:100CE0003202B61A65EB03055B084FEA32024FF495
:100CF00080104FF4002CB6EB020E75EB030E22BFF2
:100D0000B61A754640EA0C005B084FEA3202B6EBB1
:100D1000020E75EB030E22BFB61A754640EA5C0060
:100D20005B084FEA3202B6EB020E75EB030E22BFF0
:100D3000B61A754640EA9C005B084FEA3202B6EBF1
:100D4000020E75EB030E22BFB61A754640EADC00B0
:100D500055EA060E18D04FEA051545EA16754FEA12
:100D600006164FEAC30343EA52734FEAC2025FEA30
:100D70001C1CC0D111F4801F0BD141EA00014FF0BF
:100D800000004FF0004CB6E711F4801F04BF014390
:100D90000020B4F1FD0C88BFBCF5E06F3FF6AFAEAC
:100DA000B5EB030C04BFB6EB020C5FEA500C50F13C
:100DB000000041EB045170BD0EF0004E4EEA1131BF
:100DC00014EB5C04C2BFD4EB0C0541EA045170BDC6
:100DD00041F480114FF0000E013C90E645EA060E0A
:100DE0008DE60CEA135594EA0C0F08BF95EA0C0F38
:100DF0003FF43BAF94EA0C0F0AD150EA01347FF480
:100E000034AF95EA0C0F7FF425AF104619462CE756
:100E100095EA0C0F06D152EA03353FF4FDAE1046B9
:100E2000194622E750EA410618BF52EA43067FF40A
:100E3000C5AE50EA41047FF40DAF52EA43057FF49A
:100E4000EBAE12E74FF0FF3C06E000BF4FF0010CA5
:100E500002E000BF4FF0010C4DF804CD4FEA410C09
:100E60007FEA6C5C4FEA430C18BF7FEA6C5C1BD0D6
:100E700001B050EA410C0CBF52EA430C91EA030F57
:100E800002BF90EA020F0020704710F1000F91EAB4
:100E9000030F58BF994208BF90422CBFD8176FEA82
:100EA000E37040F0010070474FEA410C7FEA6C5C50
:100EB00002D150EA013C07D14FEA430C7FEA6C5C57
:100EC000D6D152EA033CD3D05DF8040B704700BF83
:100ED0008446104662468C461946634600E000BFD1
:100EE00001B5FFF7B7FF002848BF10F1000F01BDA3
:100EF0004DF808EDFFF7F4FF0CBF012000205DF86E
:100F000008FB00BF4DF808EDFFF7EAFF34BF0120F2
:100F100000205DF808FB00BF4DF808EDFFF7E0FF8B
:100F200094BF012000205DF808FB00BF4DF808EDDC
:100F3000FFF7CEFF94BF012000205DF808FB00BF43
:100F40004DF808EDFFF7C4FF34BF012000205DF825
:100F500008FB00BF4A0011D212F5001211D20DD5C4
:100F60006FF47873B3EB62520ED44FEAC12343F0AF
:100F7000004343EA505323FA02F070474FF0000059
:100F8000704750EA013002D14FF0FF3070474FF008
:100F90000000704753B94AB9002908BF00281CBF98
:100FA0004FF0FF314FF0FF3001F0C0B8ADF1080C49
:100FB0006DE904CE00F006F8DDF804E0DDE9022377
:100FC00004B070472DE9F047089D04468C46002B7D
:100FD00040F083808A42174647D9B2FA82F242B182
:100FE000C2F1200024FA00F09140974040EA010C41
:100FF00094404FEA1748230CBCFBF8F61FFA87FE13
:1010000008FB16C143EA014306FB0EF1994209D9D8
:10101000FB1806F1FF3080F01981994240F21681E9
:10102000023E3B445B1AA4B2B3FBF8F008FB10335A
:1010300044EA034400FB0EFEA64509D93C1900F121
:10104000FF3380F00581A64540F2028102383C441E
:1010500040EA0640A4EB0E0400261DB1D440002354
:10106000C5E900433146BDE8F08702B9FFDEB2FAB8
:1010700082F2002A50D1CB1B4FEA174E1FFA87F895
:101080000126B3FBFEFC210C0EFB1C3341EA03419D
:1010900008FB0CF38B4207D979180CF1FF3002D210
:1010A0008B4200F2E9808446C91AA3B2B1FBFEF07C
:1010B0000EFB101143EA014408FB00F8A04507D9D4
:1010C0003C1900F1FF3302D2A04500F2D980184646
:1010D000A4EB080440EA0C40BFE78B4209D9002D7D
:1010E00000F0B1800026C5E9000130463146BDE878
:1010F000F087B3FA83F6002E4AD18B4202D38242A4
:1011000000F2B880841A61EB030101208C46002DA7
:10111000A8D0C5E9004CA5E7C2F1200320FA03F6E8
:10112000974001FA02F04FEA174ED9403043030CC2
:10113000B1FBFEF61FFA87F80EFB161143EA0143D6
:1011400006FB08F1994204FA02F409D9FB1806F1EA
:10115000FF3C80F08D80994240F28A80023E3B4401
:101160005B1A81B2B3FBFEF00EFB103341EA034180
:1011700000FB08F38B4207D9791800F1FF3C73D2CA
:101180008B4271D902383944CB1A40EA064678E7D7
:10119000C6F1200C03FA06F422FA0CF31C4320FAE1
:1011A0000CF701FA06F34FEA144E21FA0CF11F4333
:1011B0003B0CB1FBFEF91FFA84F80EFB191143EA50
:1011C000014109FB08FA8A4502FA06F200FA06F321
:1011D00008D9611809F1FF3048D28A4546D9A9F1EA
:1011E00002092144A1EB0A01BFB2B1FBFEF00EFBE4
:1011F000101147EA014700FB08F8B84507D9E7197D
:1012000000F1FF312ED2B8452CD90238274440EAEC
:101210000940A7EB0807A0FB02894F45C64649468F
:101220001AD317D05DB1B3EB0E0267EB010707FAD3
:101230000CFCF2404CEA0202F740C5E90027002608
:101240003146BDE8F0872E4628460BE70646E9E61C
:101250001846FDE64345E5D2B8EB020E69EB040102
:101260000138DFE70846D2E760468DE78146B9E7F7
:10127000664675E730464AE7ACF1020C394413E79D
:1012800002383C4424E700BF03685A004CBF43F0D7
:10129000004323F000431844704700BF2DE9F84392
:1012A00029B34F1E044615463E464FF0000808EB92
:1012B000060101EBD171491004EBC1094846FFF763
:1012C000E3FF0346C80008308F42204409D0AB42F8
:1012D00009D8FFF7D9FF0138A8420AD201F1010865
:1012E000E5E7AB4205D9884501D04E1EDFE74FF058
:1012F00000094846BDE8F883012807D0022807D036
:10130000044B00280CBF1846002070470248704765
:1013100002487047BD190000C1190000C51900003E
:1013200030B5234B83B004468D1E3BB301A928463C
:10133000AFF30080E8B101992A46FFF7AFFF0146FD
:10134000B8B1FFF7A1FF4B68A064012B2BD0002B95
:1013500001F1040023DBFFF797FF0023C4E9130327
:101360000368002B10DBFFF78FFF2061002003B024
:1013700030BD00230920236103B030BD0D490E4864
:10138000091AC9100191D7E7C3F30360FFF7B4FF4F
:101390000028206114BF0020092003B030BD0123C4
:1013A000C4E91303DCE7002323610520DFE700BF66
:1013B00000000000D0DB000010D900000368DA074D
:1013C00010B5044606D49B0700F1480009D500F08B
:1013D0004BFC2368590709D51A070ED5DB0613D530
:1013E00010BD00F039FC23685907F5D404F1D00092
:1013F00000F042FC23681A07F0D404F5A87000F04E
:1014000043FC2368DB06EBD404F5E870BDE810402C
:1014100000F07EBC0346006800B11844704700BF6E
:1014200009207047704700BF70B504460E46316C06
:101430002046FFF775FF054688B9336C6361324675
:1014400023692146012098470828F0D0072806D1B3
:101450002846316CFFF7E6FF301D00F0F1FB08F085
:10146000D3FA00BF2DE9F0470D1D064614460FCDF7
:10147000ADF5727D0DF10C0CACE80F000FCDACE8B2
:101480000F000FCDACE80F0095E80F0002ADF76834
:10149000D6F818808CE80F0000232B6021E02B6C1D
:1014A00073614FF4F07229467AA800F041FE336967
:1014B0007AAA314650469847889BCDE90058214684
:1014C0006B648146334632460120B8470446E8B98A
:1014D0004FF4F0727AA9284600F02AFEB9F1080FFD
:1014E0001BD1296C3046FFF71BFF09345FFA84FAE1
:1014F00081460028D3D0AB6B4AF01001CDE90058EB
:1015000032466B6401203346B84708B14FF00909F1
:1015100048460DF5727DBDE8F087B9F1070FF5D1AA
:101520002046296CFFF77EFF03A800F089FB00BF6F
:10153000406C7047F0B5CB6B0B640E1D0F46054633
:101540000FCEF9B001AC0FC40FCE0FC40FCE0FC435
:1015500096E80F004FF0FF3684E80F00009606E093
:101560002B696A46294698470828044608D11099ED
:101570002846FFF7D5FE0028F2D0092079B0F0BD4B
:101580006846FFF71BFF062CF7D139462846FFF7C0
:101590004BFF00BF30B4DD6BC160826119461D6432
:1015A000002230BC5EE700BF70B5C66843690B64BB
:1015B000AEB903690A4604460D4601460220984723
:1015C000072805D008280FD129462046FFF72CFF11
:1015D0003046296CFFF726FF281D00F031FB012261
:1015E000FFF740FF08F010FA08F00EFAC2681AB1CF
:1015F000CA6B0A64002235E79CE700BF704700BF52
:10160000836801460BB1012018477047012912D0A9
:1016100009D873B90F2A0CD800EB82021846536818
:10162000009A136070470339012994BF01200220FA
:101630007047022070470846704700BF10B584B05D
:10164000002303AC0A4600941946FFF7DFFF039816
:1016500004B010BD012912D009D873B90F2A0CD8D3
:1016600000EB8200009A1268426018467047033906
:10167000012994BF012002207047022070470846CC
:10168000704700BF10B584B0002303AC03920094F0
:101690000A461946FFF7DEFF04B010BDF0B5D36B64
:1016A0001364151D8C4606460FCDADF50F7D17ACA6
:1016B0000FC40FCD0FC40FCD0FC495E80F004FF02E
:1016C000FF3784E80F006546169710E0FFF7DAFF52
:1016D000294616A8B047034616AA6946082083B9CA
:1016E000049B9847052804460CD0092809D0269960
:1016F0006846FFF715FE03466A460C2116A8002B24
:10170000E4D0092416A8FFF759FE20460DF50F7DF9
:10171000F0BD00BF2DE9F04FCC6C89B00D4654F8F8
:10172000041B0694174600F003081E46002B79D0D0
:101730000B0CDAB209048DF81D30022304EB82048D
:1017400005918DF81C302B6DB8F1020F08BFAC6B02
:1017500013F001030CD0384605A900F073FB18B94B
:10176000082009B0BDE8F08F092009B0BDE8F08F6E
:10177000D4F800A0BAF1000FEDD0019300F00803F7
:101780000293022E4AD0B4F800A0B4F802900434B8
:10179000AA6C29F0010B0F2138469344FFF74EFF46
:1017A000834539D82AF001025A44824294BF00206E
:1017B00001204FEA490303F002030AF0010A43EA59
:1017C0000A03012B49D0022B32D0002BCCD1B8F127
:1017D000000F02D0002840F0CD800434D4F800A0DF
:1017E000BAF1000FCDD105A9384600F02BFB002837
:1017F000BAD1019B002BB3D00F213846FFF71EFF53
:101800000E2102463846FFF73DFF38466A4A0F214F
:10181000FFF738FF0720A8E70020CAE7D4F80490B4
:101820000834B5E7090203230591ADF81C308AE7B7
:10183000236823F0004BB8F1000F45D128B1029A7C
:10184000002A5CD0BBF1000F74D0002B00DA043406
:101850000BF1010B04EB8B04C0E7B8F1000F19D1B9
:10186000B0B1D4E90023991C4FEAD2723FF47CAFA7
:1018700005F158010133049100F09080201DFFF71D
:10188000C9FD04AB01462846AFF3008000285BD1B8
:101890000834A3E70D213846D5F82090FFF7CEFE97
:1018A0008145F5D1AB6A9C42F2D12046FFF7ECFCB2
:1018B0000F2102463846FFF7E5FE38462A4600214A
:1018C000FFF7E0FE072050E70D213846D5F82090BD
:1018D000FFF7B4FE814501D02368B6E7AB6A9C42AE
:1018E000FAD104220021C5E90B12A318C5F828B0CB
:1018F0006B6323688B4259DB01230193A8E705F151
:101900005803CDF80C8004F1040AB04691461E46F7
:101910000DE00496FFF77EFD04AB01460022284649
:10192000AFF3008009F101090AF1040AE8B9D945C9
:101930005046EED138460D21FFF780FE049B286209
:10194000C5E90934062010E781460D213846FFF726
:1019500075FEB9F1020F286225D12B46049A43F88F
:101960002C2F6B62AC620620FFE646462368DDF84A
:101970000C806AE72046FFF787FC04340246AC631C
:1019800028461446AFF3008000283FF4EDAE3846F9
:1019900022460F21FFF776FE0720E6E638460D21A6
:1019A000FFF74CFE2862049B6B62DBE70BF1010042
:1019B00004EB80007AE700BF000000000023A9E6E6
:1019C0000123A7E60223A5E62DE9F0430646C3B0AE
:1019D00015461C46042900F2B980DFE801F09A534D
:1019E000B7290300002C40F0B180102A00F2AE802D
:1019F0000368D80600F1F38020AF384600F092F972
:101A0000B06B0023012404FA03F22A42014604D0F9
:101A100051F8042B47F8232008460133042BF2D158
:101A2000B063384600F074F9002043B0BDE8F0839D
:101A3000032C40F08B8094B204EB1243102B4FEA3E
:101A4000124500F2838003681F0700F1D08020AFA9
:101A5000384600F03BF907EBC501B56B54B10B46B6
:101A6000E81A01EBC401E4001A5843F8042B8B4236
:101A7000FAD125443846B56300F006F9002043B09A
:101A8000BDE8F083012C4FEA124895B25AD0052CDC
:101A90005CD108EB0509B9F1200F57D8B8F10F0F49
:101AA00077D9A946002D40F08880B36B6DB320AF85
:101AB0004FF0000907EBC807043F03EBC50553F8D7
:101AC000041B47F8041FAB42F9D1B9F1000F0FD046
:101AD0006F464146102938BF102107EBC1018439F8
:101AE00003EBC90553F8040B41F8040FAB42F9D1DD
:101AF000012C00F08480B8F10F0FB56345D9B9F11E
:101B0000000F02D0684600F0B7F8002043B0BDE8EF
:101B1000F083DCB9876B2346012094B206F1040CF4
:101B200000FA03F22242394604D051F8042B4CF853
:101B300023200F460133102BF2D115F40050E4D1CD
:101B4000B76304E008EB0503102B03D9022043B070
:101B5000BDE8F083B8F10F0FF8D83368DA0706D57F
:101B6000304623F0030340F8483B00F079F820AFFB
:101B7000384600F075F8B36B002D99D11D46043539
:101B8000B563384600F068F8BFE720A800F06CF8AD
:101B9000B5E7B9F1100F40D9A9F110093368D90799
:101BA00008D523F00103304643F0020340F8483BD8
:101BB00000F05EF8B9F1000F32D033685A0720D434
:101BC000B8F10F0F25D96F463846C8F1100500F05F
:101BD00057F8002DB36B7FF77CAF20AF6AE723F097
:101BE0001003336006F5E87000F09CF804E723F07A
:101BF0000803036000F5A87000F068F827E720AF3D
:101C0000BDE7304623F0040340F8D03B00F038F83D
:101C1000D6E720A800F02CF8D5E74FF00009BDE783
:101C2000B8F10F0F3FF641AF20AF384600F020F873
:101C3000B36B002D7FF43CAF384600F015F864E735
:101C400000F1340191E838009C46A6464CF8045D4A
:101C500090E8FF0FE54600BD90EC210B704700BFF8
:101C600080EC210B704700BF90EC200B704700BF49
:101C700080EC200B704700BFD0EC200B704700BFFA
:101C8000C0EC200B704700BFF0EC0201F0EC021139
:101C9000F0EC0221F0EC0231F0EC0241F0EC0251E8
:101CA000F0EC0261F0EC0271F0EC0281F0EC0291D8
:101CB000F0EC02A1F0EC02B1F0EC02C1F0EC02D1C8
:101CC000F0EC02E1F0EC02F1704700BFE0EC020141
:101CD000E0EC0211E0EC0221E0EC0231E0EC024128
:101CE000E0EC0251E0EC0261E0EC0271E0EC028118
:101CF000E0EC0291E0EC02A1E0EC02B1E0EC02C108
:101D0000E0EC02D1E0EC02E1E0EC02F1704700BF50
:101D1000B0FC0181B0FC0191B0FC01A1B0FC01B1AB
:101D2000704700BFA0FC0181A0FC0191A0FC01A1B3
:101D3000A0FC01B1704700BFEC4600B52DE9005092
:101D40002DE9FF1F4FF000032DE90C0001A9FFF75B
:101D5000F1FBDDF840E012B0704700BFEC4600B583
:101D60002DE900502DE9FF1F4FF000032DE90C0075
:101D700001A9FFF719FCDDF840E012B0704700BF81
:101D8000EC4600B52DE900502DE9FF1F4FF0000390
:101D90002DE90C0001A9FFF729FCDDF840E012B0A5
:101DA000704700BFEC4600B52DE900502DE9FF1F3C
:101DB0004FF000032DE90C0001ABFFF7EBFBDDF862
:101DC00040E012B0704700BFEC4600B52DE900506E
:101DD0002DE9FF1F4FF000032DE90C0001AAFFF7CA
:101DE0005DFCDDF840E012B0704700BF027A7AB9BE
:101DF000437AA3B14268013B10B4437213680321D4
:101E0000141D01721A024460026010BC180E704763
:101E10000368013A02721A020260180E7047B0207D
:101E2000704700BF00B585B003AA00230092194691
:101E30000C22FFF7EBFB039805B05DF804FB00BF35
:101E4000F0E700BF2DE9F043054685B00E464FF0A0
:101E500000083046FFF7CAFFB028044600F0B28001
:101E6000070620D500F0F003802B4DD0902B36D004
:101E7000A02B60D0B02B74D0C02B00F08B8000F072
:101E8000F803D02B0BD100F00702013242F40022FC
:101E9000052301212846FFF797FD0028D9D0092006
:101EA00005B0BDE8F0830DF10C0900231946870049
:101EB000CDF800900D222846FFF7A8FBFFB2039B48
:101EC000CDF80090043760064CBFDF1BFF180023DD
:101ED00019460D2228460397FFF7BCFBB9E700F02F
:101EE0000D030D2BDBD003AF002300F00F021946CA
:101EF00000972846FFF78AFB0023009719460D221A
:101F00002846FFF7A7FBA4E73046FFF76FFF240240
:101F10002043B0F5004FC2D004010023A2B21946FD
:101F20002846FFF751FD0028B9D114F4004F18BF1F
:101F30004FF001088DE7C24302F007034FF47F62C0
:101F40001A41010702F47F624FF0000348BF42F4D8
:101F5000804219462846FFF737FD00283FF479AF45
:101F60009DE7B12833D0B22800F08B80B32839D058
:101F700000F0FC03B42B92D000F0070201320123E1
:101F800042F4002219462846FFF71EFD00283FF4C0
:101F900060AF84E7C62842D0C7284CD000F0F803D1
:101FA000C02B5BD0C82860D0C9287FF478AF3046FA
:101FB000FFF71CFF020300F00F0002F47022013053
:101FC000024365E7B8F1000F18D0002068E73046FB
:101FD000FFF70CFF024600283FF461AF10F0F0035A
:101FE000D0D05CE73046FFF701FF010300F00F009F
:101FF00001F47021421C01230A43C3E703AC4346AA
:102000000E22414600942846FFF700FB0094284624
:1020100043460F224146FFF71DFB404640E730464E
:10202000FFF7E4FE010300F00F0001F47021421CF1
:1020300003230A43A6E73046FFF7D8FE02460028EE
:102040003FF42DAF10F0F0037FF429AF04212846B0
:10205000FFF7BAFC00283FF4FCAE20E700F00F02C7
:102060000132032342F420228CE73046FFF7BEFE04
:1020700000F0F00200F00F031032013343EA0232A5
:1020800006E700230DF10C090D221946CDF800904A
:102090002846FFF7BBFA3046FFF7A8FE02064FF0CE
:1020A00002070CD5039B00F07F00B8400344304684
:1020B0000393FFF79BFE030607F10707F2D4039B88
:1020C000CDF8009000F07F0403F50172BC400023BE
:1020D000144419460D2228460394FFF7BBFAB8E6CC
:1020E00010B5C26C84B0536803248DF80C401B02F9
:1020F00002F108040846D279019301A902948DF8EF
:102100000D20FFF79FFE04B010BD00BF08B5FFF71C
:1021100097FE806C08BD00BF08B5FFF791FEC06C4C
:10212000C379023300EB830008BD00BF704700BFD6
:10213000844641EA000313F003036DD1403A41D3D2
:1021400051F8043B40F8043B51F8043B40F8043B91
:1021500051F8043B40F8043B51F8043B40F8043B81
:1021600051F8043B40F8043B51F8043B40F8043B71
:1021700051F8043B40F8043B51F8043B40F8043B61
:1021800051F8043B40F8043B51F8043B40F8043B51
:1021900051F8043B40F8043B51F8043B40F8043B41
:1021A00051F8043B40F8043B51F8043B40F8043B31
:1021B00051F8043B40F8043B51F8043B40F8043B21
:1021C000403ABDD2303211D351F8043B40F8043BC1
:1021D00051F8043B40F8043B51F8043B40F8043B01
:1021E00051F8043B40F8043B103AEDD20C3205D3D1
:1021F00051F8043B40F8043B043AF9D2043208D0C9
:10220000D2071CBF11F8013B00F8013B01D30B883A
:1022100003806046704700BF082A13D38B078DD018
:1022200010F003038AD0C3F10403D21ADB071CBFEA
:1022300011F8013B00F8013B80D331F8023B20F854
:10224000023B7BE7043AD9D3013A11F8013B00F88D
:10225000013BF9D20B7803704B7843708B78837015
:102260006046704700000000000000000000000011
:1022700001F0FF01102A2BDB10F0070F08D010F837
:10228000013B013A8B422DD010F0070F42B3F6D13B
:10229000F0B441EA012141EA014122F007047FF054
:1022A00000070023F0E80256083C85EA010586EAAB
:1022B000010685FA47F5A3FA87F586FA47F6A5FAE7
:1022C00087F68EB9EED1F0BC01F0FF0102F00702F3
:1022D00032B110F8013B013A83EA010313B1F8D19E
:1022E0000020704701387047002D06BF354603387F
:1022F000073815F0010F07D1013015F4807F02BFB8
:10230000013015F4C03F0130F0BC0138704700BF08
:1023100000000000000000000000000000000000BD
:1023200000000000000000000000000000000000AD
:10233000000000000000000000000000000000009D
:1023400090F800F06DE9024520F007016FF0000CF5
:1023500010F0070491F820F040F049804FF000049D
:102360006FF00700D1E9002391F840F000F1080078
:1023700082FA4CF2A4FA8CF283FA4CF3A2FA8CF3B0
:102380004BBBD1E9022382FA4CF200F10800A4FA17
:102390008CF283FA4CF3A2FA8CF3E3B9D1E904236B
:1023A00082FA4CF200F10800A4FA8CF283FA4CF3A2
:1023B000A2FA8CF37BB9D1E9062301F1200182FA5C
:1023C0004CF200F10800A4FA8CF283FA4CF3A2FA62
:1023D0008CF3002BC6D0002A04BF04301A4612BA70
:1023E000B2FA82F2FDE8024500EBD2007047D1E973
:1023F000002304F00305C4F100004FEAC50514F002
:10240000040F91F840F00CFA05F562EA05021CBFD2
:1024100063EA050362464FF00004A9E780B590B077
:1024200000AF78600B46FB70FB78002B27D107F1DB
:10243000240300221A605A609A60DA601A615A61B5
:102440002D4A7B6852F833307B62012387F82830AD
:10245000012387F829304FF0FF333B6307F1240352
:10246000184606F0D7F8244A7B68DB0013440122A3
:102470001A717B68DB00204A1344FB6336E0FB786B
:10248000012B31D107F10C0300221A605A609A60C7
:10249000DA601A615A61184A7B6852F83330FB607F
:1024A00001233B754FF0FF33BB6107F10C03184666
:1024B00006F022F9104A7B68DB00134402221A71ED
:1024C0007B68292B0AD97B682C2B07D80A4A7B68A2
:1024D00052F833300121184606F04AF97B68DB00D8
:1024E000054A1344FB6301E00023FB63FB6B1846C2
:1024F0004037BD4680BD00BF0000002080B586B0DB
:1025000000AF78607B683B613B69002B0BD03B6977
:102510001B79012B07D13B691B68184606F036F979
:102520000346FB7501E00023FB753B691B681B0A32
:10253000DBB2FB603B691B68DBB2BB60FB68022B54
:1025400002D1BB68062B05D0FB68002B09D1BB6804
:10255000042B06D1FB7D002B0CBF01230023DBB233
:10256000FB75FB7D18461837BD4680BD80B586B02B
:1025700000AF78600B46FB707B687B617B69002B4A
:102580002FD07B691B79022B2BD17B691B681B0A1F
:10259000DBB23B617B691B68DBB2FB603B69012BF3
:1025A00005D1FB68162B08D0FB68152B05D03B69BD
:1025B000042B0FD1FB681A2B0CD17B691A68FB78AE
:1025C000012B14BF01230023DBB21946104606F08D
:1025D000CFF806E07B691B68FA781146184606F0CA
:1025E000C7F800BF1837BD4680BD80B485B000AFC6
:1025F00078607B68FB60FB68002B0ED0FB681B7962
:10260000022B03D1FB6800221A7106E0FB681B79DC
:10261000012B02D1FB6800221A7100BF1437BD469E
:102620005DF8047B7047000080B584B000AFF860AF
:10263000B9607A60BB680F2B06D90A4B0A4A40F290
:10264000E2210A4807F0E8F9FA68BB685B01134425
:1026500003F5805310337A681A6000BF1037BD4607
:1026600080BD00BF08C60000F0C7000034C60000EF
:1026700080B584B000AFF860B9601346FB71BB68E9
:102680000F2B06D90D4B0E4A4FF460710D4807F021
:10269000C3F9BB685B0103F580531833FA68134430
:1026A000043303F1424303F580135B010433FA79E9
:1026B00092B21A8000BF1037BD4680BD08C6000028
:1026C0000CC8000034C6000090B587B000AFF860B9
:1026D0007A603B600B46FB7200237B61FB681B68E2
:1026E000032B00F0E481032B05D8012B00F0988028
:1026F000022B00F04781954B00221A60934B1B6818
:10270000934A52F82330002B41D1904B1B68914AD9
:10271000DB00134400229A718C4B1B688D4ADB004E
:10272000134400221A71894B1B688A4ADB00134448
:1027300000225A71854B1B68864A4FF4E13142F8FA
:102740003310824B1B68184602F05AFF7F4B1B6800
:102750009B01814A13448149184605F08FFC7B4B4D
:1027600018687A4B1A6813461B019B1A9B007C4A17
:102770009918764B1B68DB00764A13441A4606F01C
:10278000F7FC724B1B68724A012142F823107B68E8
:10279000B3F1FF3F20D06D4B1A68724913469B007E
:1027A00013449B000B4422221A60684B1A686D493F
:1027B00013469B0013449B000B4408336A4A1A607B
:1027C000624B1A68674913469B0013449B000B44F5
:1027D0000C33664A1A6015E05C4B1A68614913466F
:1027E0009B0013449B000B44043321221A60574B77
:1027F0001A685C4913469B0013449B000B4410333A
:102800005B4A1A60514B1B68504A1268594941F89B
:1028100023204E4B1B689B00564A13447B61DBE12F
:102820004A4B01221A60494B1B68494A52F823302F
:10283000002B41D1454B1B68464ADB001344002264
:102840009A71424B1B68434ADB00134400221A7101
:102850003E4B1B683F4ADB00134400225A713B4B3E
:102860001B683C4A4FF4E13142F83310374B1B6888
:10287000184602F0C5FE354B1B689B01364A1344CF
:102880003649184605F0FAFB304B18682F4B1A688A
:1028900013461B019B1A9B00314A99182B4B1B684E
:1028A000DB002C4A13441A4606F062FC274B1B68D7
:1028B000274A012142F823107B68B3F1FF3F20D063
:1028C000224B1A68274913469B0013449B000B4474
:1028D00000221A601D4B1A68224913469B001344BC
:1028E0009B000B440833244A1A60184B1A681D4990
:1028F00013469B0013449B000B440C331F4A1A6081
:1029000015E0124B1A68174913469B0013449B00AD
:102910000B44043300221A600C4B1A681149134609
:102920009B0013449B000B441033154A1A60074B5D
:102930001B68064A12680F4941F82320034B1B68A5
:102940009B000C4A13447B6146E100BF7C120020CF
:10295000801200209C110020B40E002038040020BA
:1029600034100020D4110020480E00206C0E0020EE
:10297000900E002064120020900E0020900E002087
:10298000B40E0020AD4B02221A60AC4B1B68AC4A5F
:1029900052F82330002B41D1A84B1B68A94ADB0019
:1029A000134400229A71A54B1B68A64ADB0013440E
:1029B00000221A71A14B1B68A24ADB0013440022BB
:1029C0005A719E4B1B689F4A4FF4E13142F8331015
:1029D0009A4B1B68184602F013FE984B1B689B012C
:1029E000994A13449949184605F048FB934B1868D7
:1029F000924B1A6813461B019B1A9B00944A991824
:102A00008E4B1B68DB008F4A13441A4606F0B0FB5E
:102A10008A4B1B688A4A012142F823107B68B3F174
:102A2000FF3F20D0854B1A688A4913469B00134408
:102A30009B000B4400221A60804B1A68854913469C
:102A40009B0013449B000B440833834A1A607B4B62
:102A50001A68804913469B0013449B000B440C33B7
:102A60007E4A1A6015E0754B1A687A4913469B0036
:102A700013449B000B44043300221A606F4B1A6806
:102A8000744913469B0013449B000B441033744A53
:102A90001A606A4B1B68694A1268724941F8232020
:102AA000664B1B689B006F4A13447B6194E0634B49
:102AB00003221A60614B1B68614A52F82330002BD5
:102AC00041D15E4B1B685F4ADB00134400229A71C0
:102AD0005A4B1B685B4ADB00134400221A71574BA8
:102AE0001B68584ADB00134400225A71534B1B6881
:102AF000544A4FF4E13142F83310504B1B681846EA
:102B000002F07EFD4D4B1B689B014F4A13444F4919
:102B1000184605F0B3FA494B1868484B1A68134633
:102B20001B019B1A9B004A4A9918444B1B68DB0007
:102B3000444A13441A4606F01BFB404B1B68404AAC
:102B4000012142F823107B68B3F1FF3F20D03B4BBB
:102B50001A68404913469B0013449B000B44002213
:102B60001A60364B1A683B4913469B0013449B007E
:102B70000B4408333C4A1A60304B1A6835491346F7
:102B80009B0013449B000B440C33384A1A6015E039
:102B90002A4B1A682F4913469B0013449B000B4491
:102BA000043300221A60254B1A682A4913469B00F9
:102BB00013449B000B4410332D4A1A601F4B1B68B3
:102BC0001E4A1268274941F823201C4B1B689B00B2
:102BD000244A13447B6100BF7B68B3F1FF3F27D0D9
:102BE000164B1A6813461B019B1A9B002833184A80
:102BF00013440433114A12681E49184605F080FA3E
:102C00000E4B18680D4B1A68124913469B0013446B
:102C10009B000B4408331968084B1A680D4C134687
:102C20009B0013449B0023441B681A4600F0E0F805
:102C30007B6918461C37BD4690BD00BF7C12002042
:102C4000801200209C110020B40E002038040020C7
:102C500034100020D4110020900E0020900E00208F
:102C6000B40E002064120020900E0020900E002070
:102C7000B40E00209D2E000080B483B000AF7860B9
:102C80003960002318460C37BD465DF8047B704759
:102C900080B483B000AF7860084611461A460346F8
:102CA000FB700B46BB7013467B70002318460C3735
:102CB000BD465DF8047B704780B586B000AFF86014
:102CC000B9607A60FB683B613B69002B33D03B699C
:102CD0001B681F4AD35C012B2DD13B691B681D4A21
:102CE00052F82330012B0FD13B691A681A49134659
:102CF0009B0013449B000B4408331B687A681946F9
:102D0000B868FFF715FA0EE03B691A6812491346D6
:102D10009B0013449B000B440C331B687A681946D4
:102D2000B868FFF705FA3B691B68094A0021D154CE
:102D30000023FB7506E07A680021B86807F0AEF959
:102D40002023FB75FB7D18461837BD4680BD00BFAC
:102D5000CC1100204C120020D411002080B586B088
:102D600000AFF860B9607A60FB683B613B69002B9B
:102D70002AD03B691B680021184606F04DFB03462C
:102D8000082B21D03B691A68134913469B00134452
:102D90009B000B4410331B687A68B9681846FFF72C
:102DA000C7F93B6918683B691A680B4913469B00D1
:102DB00013449B000B4410331B687A68194606F0D5
:102DC00007FB0346FB7501E02023FB75FB7D1846DE
:102DD0001837BD4680BD00BFD411002080B483B039
:102DE00000AF786000BF0C37BD465DF8047B7047CC
:102DF00080B588B000AFF860B9607A60FB68052BD9
:102E000006D9214B214A40F28911214806F004FEDF
:102E1000204AFB6852F82330FB61FB6993F82C30A1
:102E20001B09DBB21A461C4B53F82230BB61FB690D
:102E300093F82C3003F00F037B61FB695B78DBB206
:102E4000002B01D009231AE0FB6901225A70BB68EC
:102E50001A467969B869FFF7E7FB7A687969B86952
:102E600005F04AF801227969B869FFF701FC7B692E
:102E7000DBB201221946B86904F029FF0023184685
:102E80002037BD4680BD00BF6CC60000CCC7000027
:102E90008CC60000205600204CCD000080B582B0CA
:102EA00000AF78600B46FB707B68184600F004F8B2
:102EB00000BF0837BD4680BD80B586B000AF7860E2
:102EC0007B68052B06D93C4B3C4A40F2AD113C488F
:102ED00006F0A2FD3B4A7B6852F823307B617B6998
:102EE00093F82C301B09DBB21A46374B53F82230CB
:102EF0003B617B6993F82C3003F00F03FB600022E9
:102F0000F9683869FFF7B4FBFB68DBB200221946A9
:102F1000386904F0DCFE7B69DB78DBB2002B04D07F
:102F20007B691033184604F04FFC7B6900225A700D
:102F3000264A7B68134401221A70254A7B6852F89E
:102F40002330002B1AD123497A6813469B0013447F
:102F50009B000B440C3319681E487A6813469B008B
:102F600013449B0003441B681A467868FFF740FF30
:102F7000174A7B68012142F8231019E015497A6845
:102F800013469B0013449B000B44083319681148F7
:102F90007A6813469B0013449B0003441B681A463F
:102FA0007868FFF725FF0A4A7B68002142F8231062
:102FB00000BF1837BD4680BD6CC6000024C80000A5
:102FC0008CC60000205600204CCD0000CC11002003
:102FD0004C120020D411002080B584B000AFF860FE
:102FE000B9601346FB71BB681F2B05D90D4B0E4A08
:102FF000FF210E4806F010FDFB68BA6853F8223036
:1030000023F0807323F4E063FA79120202F4E062A1
:1030100043EA0201FB68BA6843F8221000BF103788
:10302000BD4680BDF4C6000048C8000000C70000CF
:1030300080B483B000AF78600B46FB707B681B6880
:1030400023F01802FB78DB0003F018031A437B68B7
:103050001A6000BF0C37BD465DF8047B7047000066
:1030600080B58EB000AF786187ED020B87ED001B55
:10307000524A7B695B01134411331B78002B40F0EB
:103080008780002387F82830002387F82930002321
:1030900087F82A308023FB62484A7B695B0113442E
:1030A0001868464A7B695B01134404331968434A34
:1030B0007B695B01134410331B781A46FFF78CFFC2
:1030C0003E4A7B695B01134408331B6807F1280201
:1030D0001146184605F0C6F8384A7B695B0113446F
:1030E00008331B68DBB200220121184605F040F9C5
:1030F000324A7B695B011344113304221A702F4A50
:103100007B695B01134403F11801D7E90223C1E98C
:10311000002302233B7600237B76284A7B695B01F0
:1031200013441833D3E9002310461946FDF712FF64
:103130000346FB61D7E90001FDF70CFF03463B6244
:103140000023BB841D4A7B695B01134408331B6861
:103150001B4A52F823303B630021386BFFF768FFAE
:10316000164A7B695B01134408331868134A7B696C
:103170005B0113440C331B68DAB207F118031946DC
:1031800005F054F97B695B010C4A13447B630FE043
:103190000A4A7B695B01134411331B78042B05D168
:1031A0007B695B01054A13447B6301E000237B6379
:1031B0007B6B18463837BD4680BD00BF78010020C4
:1031C0008CCF000080B483B000AF786000BF0C37B4
:1031D000BD465DF8047B704780B58AB000AFF860EB
:1031E00087ED000BFB687B627B6A002B2CD07B6A2F
:1031F0005B7C042B28D102233B7400237B747B6A05
:10320000D3E9062310461946FDF7A4FE03467B6169
:10321000D7E90001FDF79EFE0346BB610023BB8397
:103220007B6A9B680A4A52F823303B620021386A65
:10323000FFF7FEFE7B6A98687B6ADB68DAB207F10B
:103240001003194605F0F2F800BF2837BD4680BDCF
:103250008CCF000080B485B000AF78607B68FB60E5
:10326000FB68002B06D0FB685B7C042B02D1FB685B
:1032700000225A7400BF1437BD465DF8047B7047C6
:1032800080B483B000AF786000BF0C37BD465DF8F6
:10329000047B704780B588B000AF78617B691B689C
:1032A000FB61FB690133BB610FE0FB69DB000E4A88
:1032B0001A443B461146184602F0DAFD0B4B1B68D8
:1032C000002B08D1B86901F0E5F8094B1B78DBB297
:1032D000002BEAD100E000BF002002F015FD002322
:1032E00018462037BD4680BDAC120020D012002009
:1032F0003A04002080B586B000AF78611B4B1B6894
:103300001B68002B0CBF01230023DBB21A46184BAD
:103310001A701AE03B461749184602F0A9FD134BF4
:103320001B685B79002B02D1134802F08EFD002050
:1033300001F0B0F80D4B1B681B68002B14BF012374
:103340000023DBB21A460D4B1A70094B1B78DBB217
:10335000002BDFD1786900F013F8002002F0D4FCD4
:10336000002318461837BD4680BD00BF5CC800006A
:103370003A040020A4120020AC1200209812002071
:1033800080B586B002AF78601E4B01221A60002320
:10339000FB6010E0FB68DB001B4A1344184602F098
:1033A00054FDFB68DB00184A1344184602F07AFD0E
:1033B000FB680133FB60FB68002BEBDD0023FB6047
:1033C00010E01249FA6813469B0013449B000B441B
:1033D0000F4A01921A6900920FCB02F0A6FCFB681B
:1033E0000133FB60FB68002BEBDD0A4B00221A70F7
:1033F00001F092FA084802F028FD00231846103721
:10340000BD4680BDD0120020AC120020D412002096
:10341000CC1200203A0400209C12002080B586B017
:1034200000AF786139610E4B29221A6001F0B8FEB5
:1034300002F080F80B4B1B6800221A6001F040F884
:1034400001209FED090A02F073FB3B46074918462D
:1034500002F00EFD002318461837BD4680BD00BFA0
:10346000E81200205CC800006F12833A9C12002012
:1034700080B400AF084B5A790132D2B25A71064B70
:103480005B79632B02D9044B00225A7100BFBD4601
:103490005DF8047B704700BF7015002080B584B0D4
:1034A00000AF78607B6800221A727B6801225A6044
:1034B000164B4FF0FF329A66144B0022DA66134B1C
:1034C0009B6E0A2200211248FFF7FEF802467B6835
:1034D0001A617B681B694FF4E1311846FFF7CCFB9A
:1034E0000A4B012283F870200023FB737B68186964
:1034F000064B93F87030FA7B0821FFF7C9FB7B6815
:1035000001221A7200BF1037BD4680BDF0120020A4
:103510005C13002080B500AFFFF7AAFF00BF80BD9D
:10352000F0B583B000AF934BD3E91601924BD3E9CA
:103530000423FDF7DDFC0346002B05D18E4BD3E9B8
:1035400004238C49C1E916238A4B1B6D22228B4927
:103550001846FFF7B1FB0346FB71222287498848D2
:10356000FEF7E6FD834B93F84C31002B3DD1814BA8
:10357000012283F84C217F4B012283F84D21804B9F
:103580003C2283F80A217E4B782283F80B217C4B66
:103590007C4AC3F8D4207A4B4FF07E52C3F8D8202F
:1035A000774B4FF08042C3F8DC20754B4FF4A0728C
:1035B000A3F8EA20724B734AC3F8C820704B4FF04F
:1035C0007E52C3F8CC206E4B4FF08042C3F8D0201F
:1035D0006B4BFA22A3F8E620694B0122A3F8E820FE
:1035E000674B042283F80C216AE0624B93F84D315B
:1035F000032B10D0032B15DC012B02D0022B05D09E
:1036000010E05C4B042283F84D2159E0594B042211
:1036100083F84D2154E0574B022283F84D2101F0ED
:1036200015FB4DE0FB79002B49D1554B1B78102B36
:1036300041D1504B032283F84D21514B5A78504BC6
:1036400083F80A214E4B9A784D4B83F80B210422C4
:103650004D494E48FEF76CFD04224D494D48FEF79A
:1036600067FD04224C494D48FEF762FD02224C4999
:103670004C48FEF75DFD04224B494C48FEF758FDCF
:1036800004224B494B48FEF753FD04224A494B485C
:10369000FEF74EFD02224A494A48FEF749FD022242
:1036A00049494A48FEF744FD354B93F82120344BF5
:1036B00083F80C2103E02F4B042283F84D2100BF37
:1036C0002F4B93F80C212C4B93F827309A4240F063
:1036D0005581284BD3F84431B3F1FF3F06D0254B39
:1036E000D3F844310133234AC2F84431214B93F8D3
:1036F0005231002B70D11F4B012283F852211D4BF8
:10370000012283F853211B4B0022C3F844211C4B98
:10371000002283F812211A4B002283F80F21184B44
:10372000D3F8D4301846FDF723F94FF00002284BA8
:10373000FDF7A0FA02460B46104619464FF000026C
:10374000244BFDF76DF902460B460D49C1E92823CC
:103750000B4B012283F80D21094B012283F8102124
:10376000074B002283F81121054B012283F80E211B
:10377000FEE000BF181400204004002012130020B7
:10378000F012002000006040F3120020C41300205B
:10379000F7120020C8130020FB120020CC130020D9
:1037A000FF120020DA13002001130020B8130020BC
:1037B00005130020BC13002009130020C0130020B3
:1037C0000D130020D61300200F130020D813002063
:1037D0000000144000005940C74B93F85331012BAF
:1037E00064D1C64B002283F81221C44B002283F817
:1037F0000F21C24B012283F80D21C04B012283F817
:103800001021BE4B002283F81121BC4B012283F80A
:103810000E21B94BD3F844311A46642303FB02F35B
:103820001E46B64B93F80A311846FDF77FF802465C
:103830000B46AFA1D1E90001FDF71CFA02460B4689
:1038400014461D46AD4BD3F8D8301846FDF790F816
:1038500002460B4620462946FCF72AFF02460B4645
:1038600043EC172BB0EE470AF0EE670A06F04CF86F
:1038700053EC102B10461946FDF76CFB03469E4295
:1038800076D39D4B022283F853219B4B0022C3F831
:1038900044219A4B002283F80D21984B002283F893
:1038A0000E21964B012283F80F2161E0934B0022F9
:1038B00083F80D21914B012283F810218F4B0022B8
:1038C00083F812218D4B002283F811218B4B0022AB
:1038D00083F80E21894B012283F80F21864BD3F800
:1038E00044311A46642303FB02F31C46834BD3F88E
:1038F000D8301846FDF73CF802460B4643EC102B37
:1039000006F002F853EC102B10461946FDF722FB87
:1039100003469C422CD3784B012283F85321764BEB
:103920000022C3F84421754B002283F80F21734B0A
:10393000D3F8D4301846FDF71BF84FF00002704B57
:10394000FDF798F902460B46104619464FF0000263
:103950006C4BFDF765F802460B466849C1E9282320
:10396000664B012283F80D21644B012283F80E215E
:10397000624BD3E928236149C1E91E235F4B93F8C9
:103980000C21614B93F828309A4240F020815A4B29
:10399000D3F84831B3F1FF3F06D0574BD3F8483145
:1039A0000133554AC2F84831534B93F85431002B38
:1039B00034D1514B012283F854214F4B012283F81B
:1039C00055214D4B0022C3F848214C4B002283F86F
:1039D0000F214A4B002283F81221484B012283F821
:1039E0000D21464BD3F8C8301846FCF7C1FF4FF005
:1039F0000002464BFDF714F802460B463F49C1E969
:103A00002A233E4B012283F810213C4B002283F8ED
:103A10000E213A4B012283F81121D2E0364B93F864
:103A20005531012B74D1354B002283F80F21334BD4
:103A3000002283F81221314B012283F80D212F4BF4
:103A4000012283F810212D4B002283F80E212B4BED
:103A5000012283F81121284BD3F848311A466423F8
:103A600003FB02F31E46254B93F80A311846FCF778
:103A70005DFF02460B461EA1D1E90001FDF7FAF8F1
:103A800002460B4614461D461C4BD3F8CC30184654
:103A9000FCF76EFF02460B4620462946FCF708FE5F
:103AA00002460B4643EC172BB0EE470AF0EE670ACE
:103AB00005F02AFF53EC102B10461946FDF74AFA81
:103AC00003469E427DD30C4B022283F855210A4BBC
:103AD0000022C3F84821094B002283F80D21074B2F
:103AE000002283F81121054B012283F8122168E09E
:103AF00000000000004CED4018140020F0120020DF
:103B000000001440000059404004002000003440F0
:103B1000B64B002283F80D21B44B012283F810210B
:103B2000B24B002283F80F21B04B002283F80E2104
:103B3000AE4B002283F81121AC4B012283F81221F5
:103B4000AB4BD3F848311A46642303FB02F31C46FF
:103B5000A64BD3F8CC301846FCF70AFF02460B46BA
:103B600043EC102B05F0D0FE53EC102B10461946F9
:103B7000FDF7F0F903469C4223D39D4B012283F8C5
:103B800055219B4B0022C3F84821984B002283F813
:103B90001221964B012283F80D21944BD3F8C830A3
:103BA0001846FCF7E5FE4FF00002924BFCF738FF99
:103BB00002460B468D49C1E92A238C4B012283F82A
:103BC00011218A4BD3E92A238849C1E91E23884B56
:103BD000D3E90601884BD3E90223FDF789F90346AF
:103BE000002B05D1844BD3E902238149C1E9062387
:103BF0007F4B1B691846FEF781FC0346BB717B4B6C
:103C000093F80C217C4B93F829309A4240F0CE81F6
:103C1000774BD3F83C31B3F1FF3F06D0744BD3F868
:103C20003C310133724AC2F83C31714B93F84E314A
:103C3000002B34D16E4B012283F84E216C4B0122B4
:103C400083F84F216A4B0022C3F83C21674B0022C6
:103C500083F81821654B002283F81521634B01225C
:103C600083F81621614BD3F8C8301846FCF780FE64
:103C70004FF000025F4BFCF7D3FE02460B465B4958
:103C8000C1E92023594B012283F81921574B002207
:103C900083F81721554B012283F8142156E1544B28
:103CA00093F84F31012B02D0022B43D0A8E04F4BA9
:103CB000002283F818214D4B002283F815214B4B2D
:103CC000012283F81621494B012283F81921474B21
:103CD000002283F81721454B012283F81421444B1D
:103CE000D3F83C311A46642303FB02F31A463F4BD8
:103CF000B3F8E6309A42C0F024813D4B032283F8AA
:103D00004F213B4B0022C3F83C21384B012283F862
:103D10001A21364BD3F8D0301846FCF729FE4FF065
:103D20000002364BFCF77CFE02460B462F49C1E9E8
:103D3000222306E12D4B002283F816212B4B012272
:103D400083F81921294B002283F81821274B0022E0
:103D500083F81721254B002283F81421234B0122DD
:103D600083F81521224BD3F83C311A46642303FB18
:103D700002F31C461D4BD3F8CC301846FCF7F8FD77
:103D800002460B4643EC102B05F0BEFD53EC102B06
:103D900010461946FDF7DEF803469C42C0F0D3807A
:103DA000134B012283F84F21114B0022C3F83C2111
:103DB0000E4B002283F815210C4B012283F81621AB
:103DC0000A4BD3F8C8301846FCF7D2FD4FF000027A
:103DD000084BFCF725FE02460B460449C1E92023A7
:103DE000024B012283F81421ADE000BFF012002045
:103DF00018140020000034404004002000003E4021
:103E0000A54B012283F81A21BB79002B30D0A34B9C
:103E1000012283F84F21A14B0022C3F83C219E4B85
:103E2000002283F818219C4B002283F815219A4B1D
:103E3000012283F81621984BD3F8C8301846FCF7B6
:103E400097FD4FF00002964BFCF7EAFD02460B4649
:103E50009149C1E92023904B012283F819218E4B0F
:103E6000002283F817218C4B012283F814216CE087
:103E70008A4BD3F83C311A46642303FB02F31E46F7
:103E8000854B93F80A311846FCF750FD02460B4665
:103E90007FA1D1E90001FCF7EDFE02460B46144676
:103EA0001D467D4BB3F8E6301846FCF73FFD024651
:103EB0000B4620462946FCF7FBFB02460B46144600
:103EC0001D46754BD3F8CC301846FCF751FD024621
:103ED0000B4620462946FCF7EBFB02460B4643EC1B
:103EE000172BB0EE470AF0EE670A05F00DFD53EC14
:103EF000102B10461946FDF72DF803469E4224D399
:103F0000664B022283F84F21644B0022C3F83C2108
:103F1000614B002283F816215F4B012283F819219F
:103F20005D4B002283F818215B4B002283F8172198
:103F3000594B002283F81421574B012283F8152195
:103F400003E000BF02E000BF00E000BF524B93F867
:103F50001421514B83F811214F4B93F815214E4BEF
:103F600083F812214C4B93F81A214B4B83F8132101
:103F7000494B93F81621484B83F80D21464B93F893
:103F80001921454B83F81021434BD3E920234249A3
:103F9000C1E91E23404B93F817213F4B83F80E21B4
:103FA0003D4B93F818213C4B83F80F213B4BD3E951
:103FB0000E013C4BD3E90023FCF79AFF0346002B8C
:103FC00005D1384BD3E900233449C1E90E23334BE3
:103FD0001B6B1846FEF792FA0346BB712E4B93F803
:103FE0000C21304B93F82A309A4240F0DE812B4B63
:103FF000D3F84031B3F1FF3F06D0284BD3F840311E
:104000000133264AC2F84031244B93F85031002B3B
:1040100034D1224B012283F85021204B012283F816
:1040200051211E4B0022C3F840211B4B002283F874
:104030002021194B002283F81C21174BD3F8D430D0
:104040001846FCF795FC4FF00002154BFCF7E8FC16
:1040500002460B461049C1E924230F4B012283F885
:104060001B210D4B012283F81E210B4B002283F8EC
:104070001F21094B012283F81D2166E1074B93F8AC
:104080005131012B10D0022B51D0ABE0AFF30080A7
:1040900000000000004CED40F01200201814002039
:1040A0000000344040040020A34B002283F820216C
:1040B000A14B002283F81C219F4B012283F81B2176
:1040C0009D4B012283F81E219B4B002283F81F2168
:1040D000994B012283F81D21984BD3F840311A46A1
:1040E000642303FB02F31A46934BB3F8EA309A4277
:1040F000C0F01981914B032283F851218F4B00228C
:10410000C3F840218C4B012283F821218A4BD3F83C
:10411000DC301846FCF72CFC4FF00002884BFCF713
:104120007FFC02460B468449C1E92623FBE0824B13
:10413000002283F81B21804B012283F81E217E4B35
:10414000002283F820217C4B002283F81F217A4B28
:10415000002283F81D21784B012283F81C21774B24
:10416000D3F840311A46642303FB02F31C46724B1A
:10417000D3F8D8301846FCF7FBFB02460B4643EC5D
:10418000102B05F0C1FB53EC102B10461946FCF721
:10419000E1FE03469C42C0F0C880684B012283F8D0
:1041A0005121664B0022C3F84021634B002283F863
:1041B0001C21614BD3F8D4301846FCF7D9FB4FF0E3
:1041C0000002604BFCF72CFC02460B465A49C1E941
:1041D0002423594B012283F81B21574B012283F8DA
:1041E0001D21A2E0544B012283F82121534BD3F827
:1041F00040311A46642303FB02F31E464E4B93F8EC
:104200000A311846FCF792FB02460B4648A1D1E959
:104210000001FCF72FFD02460B4614461D46464B97
:10422000B3F8EA301846FCF781FB02460B462046FD
:104230002946FCF73DFA02460B4614461D463E4B06
:10424000D3F8D8301846FCF793FB02460B462046BD
:104250002946FCF72DFA02460B4643EC172BB0EE2D
:10426000470AF0EE670A05F04FFB53EC102B10469F
:104270001946FCF76FFE03469E4220D32F4B0222C5
:1042800083F851212D4B0022C3F840212A4B0022F4
:1042900083F81B21284B012283F81E21264B002284
:1042A00083F82021244B002283F81F21224B002277
:1042B00083F81D21204B012283F81C2144E0BB79A7
:1042C000002B41D01D4B012283F851211B4B0022B2
:1042D000C3F84021184B002283F82021164B0022FE
:1042E00083F81C21144BD3F8D4301846FCF740FB5C
:1042F0004FF00002134BFCF793FB02460B460E49AE
:10430000C1E924230C4B012283F81B210A4B012213
:1043100083F81E21084B002283F81F21064B01223F
:1043200083F81D2110E000BF0FE000BF0DE000BFCB
:1043300000000000004CED40F01200201814002096
:1043400000003E400000344000BF504B93F81F2156
:104350004E4B83F811214D4B93F820214B4B83F8A2
:1043600012214A4B93F82121484B83F81321474BE4
:1043700093F81B21454B83F80D21444B93F81E21E4
:10438000424B83F81021414BD3E924233F49C1E933
:104390001E233E4B93F81D213C4B83F80E213B4BD3
:1043A00093F81C21394B83F80F21394BD3F8FC309B
:1043B000364A92F80D2111461846FEF7D7F8344BCD
:1043C000D3F8E830314A92F80E2111461846FEF72C
:1043D000CDF82F4BD3F8D4302C4A92F80F21114648
:1043E0001846FEF7C3F82A4BD3F8C030274A92F894
:1043F000102111461846FEF7B9F8254BD3F8AC301A
:10440000224A92F8112111461846FEF7AFF8204BC8
:10441000D3F898301D4A92F8122111461846FEF73B
:10442000A5F81B4BD3F88430184A92F81321114693
:104430001846FEF79BF8164BD3F83831134A92ED25
:104440001E7BB0EE470AF0EE670A1846FEF7C4FE80
:104450000F4BD3F824310D4A92ED227BB0EE470A80
:10446000F0EE670A1846FEF7B7FE094BD3F8103195
:10447000064A92ED267BB0EE470AF0EE670A184630
:10448000FEF7AAFE00BF0C37BD46F0BDF0120020BB
:104490001814002080B582B000AF78607B68002BD4
:1044A00003D07B68012B03D005E0FFF733F802E06F
:1044B000FFF736F800BF00BF0837BD4680BD0000DB
:1044C00080B584B000AF00F0AFFBB64B93F824206A
:1044D000B54B83F81121B34B93F82520B24B83F8E9
:1044E0001221B04B93F82620AF4B83F81321AD4B2C
:1044F00093F82020AC4B83F80D21AA4B93F823208E
:10450000A94B83F81021A74BD3E90623A649C1E99B
:104510001E23A44B93F82120A34B83F80E21A14B1B
:1045200093F82220A04B83F80F21A04B00225A645D
:104530009E4B002283F840209A4BD3E904239B49E9
:10454000C1E916239A48FEF7A9FF984B01221A7079
:10455000964B00225A6095494FF00002954BC1E9F5
:104560000623924B00221A708E4BD3E902238F4907
:10457000C1E906238D4BFB608C4B00221A728B4BDA
:1045800001225A6000210020FDF748FF0246FB6827
:104590001A61864B01221A72844B012283F8202073
:1045A000824B00225A6281494FF00002814BC1E9DF
:1045B0000E237E4B002283F820207A4BD3E9002380
:1045C0007A49C1E90E237C4BFB60784B002283F8CB
:1045D0002820764B01225A6200210120FDF71EFFA0
:1045E0000246FB681A61714B012283F828206F4B49
:1045F000012283F8EC206D4B0022C3F8F0206B4BB6
:10460000002283F8EC206D4BBB60684B002283F8DE
:10461000F420664B0122C3F8F02001210220FDF7AF
:10462000FDFE0246BB681A61604B012283F8F4204C
:104630005E4B012283F8D8205C4B0022C3F8DC20BB
:104640005A4B002283F8D8205D4BBB60574B0022A9
:1046500083F8E020554B0122C3F8DC2001210C2017
:10466000FDF7DCFE0246BB681A61504B012283F85D
:10467000E0204E4B012283F8C4204C4B0022C3F8AB
:10468000C8204A4B002283F8C4204E4BBB60474BE6
:10469000002283F8CC20454B0122C3F8C820012119
:1046A0000920FDF7BBFE0246BB681A613F4B0122A1
:1046B00083F8CC203D4B012283F8B0203B4B0022F5
:1046C000C3F8B420394B002283F8B0203E4BBB60C6
:1046D000364B002283F8B820344B0122C3F8B420B3
:1046E00001210A20FDF79AFE0246BB681A612F4B92
:1046F000012283F8B8202D4B012283F89C202B4BFC
:104700000022C3F8A020294B002283F89C202F4BC5
:10471000BB60264B002283F8A420244B0122C3F85F
:10472000A02001210B20FDF779FE0246BB681A612B
:104730001E4B012283F8A4201C4B012283F8882001
:104740001A4B0022C3F88C20184B002283F88820D3
:104750001F4BBB60154B002283F89020134B0122A6
:10476000C3F88C2001210820FDF758FE0246BB68E3
:104770001A610E4B012283F890200C4B012283F822
:1047800074200A4B00229A67084B002283F8742099
:10479000104BBB60054B002283F87C20034B0122A9
:1047A0001AE000BF40040020F0120020181400207E
:1047B000581400200000F0BF381400200415002019
:1047C000F0140020DC140020C8140020B4140020D1
:1047D000A01400208C1400209A6701210D20FDF701
:1047E0001DFE0246BB681A61474B012283F87C20FC
:1047F000454B012283F82821434B0022C3F82C218A
:10480000414B002283F82821404B7B603E4B002225
:1048100083F830213C4B0122C3F82C219FED361B3D
:104820009FED370B0520FEF71BFC02467B681A61E3
:10483000354BD3F838311846FEF7C4FC324B012211
:1048400083F83021304B012283F814212E4B0022B3
:10485000C3F818212C4B002283F814212C4B7B60C9
:10486000294B002283F81C21274B0122C3F8182171
:104870009FED211B9FED220B0620FEF7F1FB024668
:104880007B681A61204BD3F824311846FEF79AFC56
:104890001D4B012283F81C211B4B012283F80021B0
:1048A000194B0022C3F80421174B002283F8002182
:1048B000184B7B60144B002283F80821124B012215
:1048C000C3F804219FED0C1B9FED0D0B0320FEF799
:1048D000C7FB02467B681A610B4BD3F810311846B0
:1048E000FEF770FC084B012283F8082100BF103747
:1048F000BD4680BDAFF30080000000000000000056
:104900000000000000409F401814002040150020C7
:104910002C1500201815002080B500AFA84B93F887
:104920004030002B11D1A64B012283F84020A44B2C
:104930005B6C012B09D1A24B93F84830002B04D0BB
:104940009F4B1B6D1846FEF749FA00F0B5FA9C4BD9
:104950001B78002B0FD19A4B01221A70984B5B6881
:10496000012B08D1964B1B7A002B04D0944B1B696A
:104970001846FDF73AFE924B93F82030002B11D1E8
:104980008F4B012283F820208D4B5B6A012B09D1CC
:104990008B4B93F82830002B04D0894B1B6B1846A7
:1049A000FDF723FE864B93F8EC30002B13D1844B9C
:1049B000012283F8EC20824BD3F8F030012B0AD18E
:1049C0007F4B93F8F430002B05D07D4BD3F8FC30AF
:1049D0001846FDF70AFE7A4B93F8D830002B13D116
:1049E000774B012283F8D820754BD3F8DC30012BAC
:1049F0000AD1734B93F8E030002B05D0704BD3F8FD
:104A0000E8301846FDF7F1FD6D4B93F8C430002BEC
:104A100013D16B4B012283F8C420694BD3F8C83003
:104A2000012B0AD1664B93F8CC30002B05D0644B98
:104A3000D3F8D4301846FDF7D8FD614B93F8B03069
:104A4000002B13D15E4B012283F8B0205C4BD3F8CE
:104A5000B430012B0AD15A4B93F8B830002B05D053
:104A6000574BD3F8C0301846FDF7BFFD544B93F8B1
:104A70009C30002B13D1524B012283F89C20504BC9
:104A8000D3F8A030012B0AD14D4B93F8A430002B62
:104A900005D04B4BD3F8AC301846FDF7A6FD484B7C
:104AA00093F88830002B13D1454B012283F88820DE
:104AB000434BD3F88C30012B0AD1414B93F8903003
:104AC000002B05D03E4BD3F898301846FDF78DFDEE
:104AD0003B4B93F87430002B12D1394B012283F8F1
:104AE0007420374B9B6F012B0AD1354B93F87C30E8
:104AF000002B05D0324BD3F884301846FDF775FDF6
:104B00002F4B93F82831002B19D12D4B012283F81C
:104B100028212B4BD3F82C31012B10D1284B93F8A3
:104B20003031002B0BD0264BD3F838311846FEF726
:104B300091FB234BD3F838311846FEF7A1FB204BED
:104B400093F81431002B19D11D4B012283F8142145
:104B50001B4BD3F81831012B10D1194B93F81C3192
:104B6000002B0BD0164BD3F824311846FEF772FBFE
:104B7000134BD3F824311846FEF782FB104B93F801
:104B80000031002B19D10E4B012283F800210C4B70
:104B9000D3F80431012B10D1094B93F80831002BC5
:104BA0000BD0074BD3F810311846FEF753FB044BDC
:104BB000D3F810311846FEF763FB00BF80BD00BF7D
:104BC0001814002080B586B000AF78607B680022A2
:104BD0001A727B6801225A604FF0FF337B61002319
:104BE000FB6007F10C000A237A690021FDF76CFDD8
:104BF00002467B681A617B681B694FF4E1311846F5
:104C0000FEF73AF80123FB740023BB747B68186934
:104C1000FB7CBA7C0821FEF73BF87B6801221A7204
:104C200000BF1837BD4680BD80B500AF054B0022E0
:104C30005A66044B002283F860200348FFF7C2FF46
:104C400000BF80BD181400207814002080B58AB001
:104C500000AF844BB3F8EA20824BA3F8E020814BED
:104C6000B3F8E6207F4BA3F8E2207E4BD3F8C830A0
:104C70007C4AC2F8B0307B4BD3F8CC30794AC2F8CA
:104C8000B430784BD3F8D030764AC2F8B830754B90
:104C9000B3F8E820734BA3F8E420724BD3F8D43078
:104CA000704AC2F8BC306F4BD3F8D8306D4AC2F8A6
:104CB000C0306C4BD3F8DC306A4AC2F8C4300422EE
:104CC00069496A48FDF734FA042269496948FDF7E1
:104CD0002FFA042268496948FDF72AFA0222684936
:104CE0006848FDF725FA042267496848FDF720FA6D
:104CF000042267496748FDF71BFA042266496748A2
:104D0000FDF716FA022266496648FDF711FA0222FB
:104D100065496648FDF70CFA524B93F80A313B712E
:104D2000504B93F80B317B714E4B93F8EC30BB71C9
:104D30004C4B93F8F030BB724A4B93F8F430BB7392
:104D4000484B93F8ED30FB71464B93F8F130FB7212
:104D5000444B93F8F530FB73424B93F8EE303B72C3
:104D6000404B93F8F2303B733E4B93F8F6303B7474
:104D70003C4B93F8EF307B723A4B93F8F3307B73F4
:104D8000384B93F8F7307B74364B93F8F830BB749C
:104D9000344B93F8F930FB74324B93F8FA303B758F
:104DA000304B93F8FE303B762E4B93F802313B7735
:104DB0002C4B93F8FB307B752A4B93F8FF307B76B6
:104DC000284B93F803317B77264B93F8FC30BB7567
:104DD000244B93F80031BB76224B93F80431BB7718
:104DE000204B93F8FD30FB751E4B93F80131FB7699
:104DF0001C4B93F80531FB771A4B93F8063187F873
:104E00002030184B93F8083187F82230154B93F86F
:104E1000073187F82130134B93F8093187F8233095
:104E2000104B93F80C3187F82430012387F8273092
:104E30000FE03B1D212219461D48FDF779F91D4B56
:104E40001B6F21221A491846FDF788FF034687F891
:104E5000273097F82730002BEBD100BF00BF283751
:104E6000BD4680BDF0120020AC130020DC130020F2
:104E7000B0130020E0130020B4130020E41300203E
:104E8000D0130020E8130020A0130020EA13002014
:104E9000A4130020EE130020A8130020F21300201A
:104EA000D2130020F6130020D4130020F8130020A2
:104EB000341300201814002080B500AF0C4B93F879
:104EC0006030002B11D10A4B012283F86020084B7F
:104ED0005B6E012B09D1064B93F86830002B04D090
:104EE000034B1B6F1846FDF779FF00BF80BD00BF65
:104EF0001814002080B489B000AF294BFB60294A08
:104F0000294B9A4216D00023FB610AE0264AFB692E
:104F100052F823202349FB6941F82320FB69013320
:104F2000FB61FB689B08FA699A42EFD31F4B1D4A4D
:104F30009A6002E01D4B1C4A9A601D4BBB611D4BE1
:104F40007B611D4BBB60BA687B69D31AFB6107E0CC
:104F50007A69531C7B61BB69591CB96112781A705C
:104F6000FB695A1EFA61002BF2D1144B3B61144BC2
:104F70007B607A683B69D31AFB6104E03B695A1C89
:104F80003A6100221A70FB695A1EFA61002BF5D1B2
:104F900000BF00BF2437BD465DF8047B704700BFEB
:104FA00000000000000000000000000000ED00E034
:104FB00000000020DCDB000004EA0000280E0020D6
:104FC0001457002080B400AF6B4BD3F888306A4A86
:104FD00043F47003C2F88830684B4CF22052DA81F7
:104FE000664B4DF62812DA81644B4FF4E9721A8051
:104FF000634B1B78DBB203F00103002B0FD0614B36
:105000009B78DBB203F00803002B2ED05D4B9B781E
:10501000DBB25C4A43F00803DBB2937025E05A4BE5
:1050200003F581531C331B68574943F0005201F5C7
:1050300081531C331A60554B1B6903F48073002B9A
:1050400013D1524B1B6923F47C53504A43F44073F1
:1050500013614E4B1B694D4A43F4807313614B4BF4
:105060001B694A4A23F400731361494B2A221A70C0
:10507000454B03F5825304334FF08A721A60424B5A
:105080001B6823F44023404A43F4002313603E4B43
:1050900003F5805304331B6823F440333A4943F447
:1050A000803201F5805304331A60374B03F5815386
:1050B00018331B68344943F4007201F581531833E7
:1050C0001A60344B9B6C334A23F0807323F4E06303
:1050D0009364314B00221A722F4B5B78DBB223F0C2
:1050E0006003DBB22C4A43F02003DBB253702B4B3E
:1050F00080221A70284B00221A73274BBA221A708A
:1051000000BF254B9B79DBB203F01003002BF8D1D5
:10511000214BDB78DBB2204A03F01F03DBB2D370F4
:105120001D4B13221A711C4B18225A711A4B5B79B2
:10513000DBB2194A43F04003DBB2537100BF164B98
:105140009B79DBB203F04003002BF8D0124B1B78A5
:10515000DBB2114A03F03F03DBB2137000BF0E4B0A
:105160009B79DBB203F00C030C2BF8D100BF00BF1E
:10517000BD465DF8047B704700ED00E0002005406F
:1051800000F0074000D007400070044000D003400A
:1051900000E00740009004400040064000500640F8
:1051A00080B483B000AF9C4B1B78DBB203F0C0032C
:1051B000002B40F0DE80984B5B79DBB203F04003BC
:1051C000002B40F0B980944B1B78DBB203F0040352
:1051D000002B4ED1904B1B7BDBB203F00303002B63
:1051E00002D0012B03D006E08C4B7B6006E04FF42D
:1051F00000437B6002E08A4B7B6000BF864B5B789C
:10520000DBB203F03003002B23D0834B1B7BDBB2DC
:1052100003F00303012B1CD07F4B1B78DBB203F0A0
:105220003803302B05D0382B07D14FF4C0637B8077
:105230000EE04FF4A0637B800AE0774B1B78DBB273
:10524000DB0803F00703202202FA03F37B8000BF90
:1052500009E0714B1B78DBB2DB0803F00703012286
:1052600002FA03F37B807B887A68B2FBF3F37B60FE
:1052700002E04FF400437B60674BDB78DBB203F066
:10528000E003E02B51D0E02B00F2B080C02B45D0E2
:10529000C02B00F2AB80A02B39D0A02B00F2A6804F
:1052A000802B2DD0802B00F2A180602B21D0602B91
:1052B00000F29C80402B15D0402B00F29780002BF1
:1052C00002D0202B07D091E07A6813469B0013444C
:1052D000DB017B608BE07A6813469B0013441B0262
:1052E0007B6084E07A6813461B019B1ADB017B60BC
:1052F0007DE07A6813469B0013445B027B6076E096
:105300007B684FF4377202FB03F37B606FE07B68CE
:105310004FF4B76202FB03F37B6068E07B6840F602
:10532000950202FB03F37B6061E07B6840F671321B
:1053300002FB03F37B605AE0374B1B79DBB29BB275
:1053400003F01F039BB201337B807B88334AB2FB9F
:10535000F3F37B60304B5B79DBB29BB203F01F034E
:105360009BB218337B807A887B6802FB03F37B60F7
:105370003DE0294B1B78DBB203F0C003402B1AD170
:10538000254B5B78DBB203F00103002B03D14FF414
:1053900000437B602BE0204B1B7ADBB25B0803F001
:1053A0000703012202FA03F37B807B881D4AB2FBCC
:1053B000F3F37B601BE0184B1B78DBB203F0C003F8
:1053C000802B23D1144B1B7BDBB203F00303002B98
:1053D00002D0012B03D006E0104B7B6007E04FF4B6
:1053E00000437B6003E00E4B7B6000E000BF0E4B90
:1053F00003F5825304331B681B0F03F00F030133C3
:105400007A68B2FBF3F3094A136000E000BF0C377F
:10541000BD465DF8047B70470040064080F0FA020C
:10542000006CDC0200093D000070044070040020A4
:1054300080B584B000AFF860B9601346FB71BB68FB
:105440001F2B05D90D4B0E4AFF210E4804F0E4FA3C
:10545000FB68BA6853F8223023F0807323F4E063CA
:10546000FA79120202F4E06243EA0201FB68BA68C8
:1054700043F8221000BF1037BD4680BD38C700007A
:1054800078C8000044C7000080B483B000AF7860E3
:105490000B46FB707B68FA781A7000BF0C37BD466C
:1054A0005DF8047B7047000080B584B000AF3B46D8
:1054B00000221A605A609A60DA60064B3B60022351
:1054C0007B723B461946002002F07CFA00BF103781
:1054D000BD4680BD80F0FA0280B584B000AF074AB7
:1054E0003B1D07CA83E807003B1D1946002002F058
:1054F000B5FA00BF1037BD4680BD00BF7CC70000B5
:1055000080B500AF2A210848FFF7BEFF0022122114
:105510000648FFF78DFFFFF7C7FFFFF7DDFF0448E1
:1055200002F0F2FA00BF80BD00E0074000900440A6
:1055300060C8000080B582B000AF02F07FF90023A0
:10554000FB7106E0FB79184602F062FBFB79013340
:10555000FB71FB79042BF5D9FFF7D2FF00BF0837A9
:10556000BD4680BD80B584B000AFF860B960134619
:10557000FB71BB681F2B05D90D4B0E4AFF210E484E
:1055800004F04AFAFB68BA6853F8223023F08073BB
:1055900023F4E063FA79120202F4E06243EA0201C2
:1055A000FB68BA6843F8221000BF1037BD4680BDC3
:1055B00088C700008CC8000094C7000080B483B086
:1055C00000AF78600B46FB707B6803F581530833AE
:1055D000FA785209D2B29200134403F1424303F520
:1055E0008013DA00FB7803F01F0313449B001A4674
:1055F0000123136000BF0C37BD465DF8047B704784
:1056000080B584B000AF786089215D48FFF7D6FF90
:105610008A215B48FFF7D2FF8B215948FFF7CEFF65
:105620008C215748FFF7CAFF8D215548FFF7C6FF69
:105630007B68032B00F2968001A252F823F000BF92
:1056400051560000C3560000ED56000017570000E9
:105650000023FB600023BB60FB68002B05D1032205
:1056600011214848FFF77EFF10E0FB68012B05D1B0
:10567000032202214448FFF775FF07E0FB68022B75
:1056800004D1032207214148FFF76CFFBB68002BC0
:1056900005D1032210213B48FFF764FF64E0BB689B
:1056A000012B05D1032201213748FFF75BFF5BE0A7
:1056B000BB68022B58D1032206213448FFF752FF62
:1056C00052E00023FB600023BB60FB68002B04D189
:1056D000032204212E48FFF745FFBB68002B45D16C
:1056E000032203212A48FFF73DFF3FE00023FB6030
:1056F0000023BB60FB68002B04D103220321234855
:10570000FFF730FFBB68002B32D1032202211F4874
:10571000FFF728FF2CE00023FB600023BB60FB6841
:10572000002B05D1032211211948FFF71BFF07E0C9
:10573000FB68012B04D103220B211248FFF712FF53
:10574000BB68002B05D1032210211148FFF70AFF87
:1057500010E0BB68012B0DD103220A210948FFF795
:1057600001FF07E000BF06E000BF04E000BF02E069
:1057700000BF00E000BF00BF1037BD4680BD00BFC6
:105780000070044000A004400090044000C00440A9
:1057900000B0044080B500AF002002F0EDFC00BF77
:1057A00080BD80B500AF012002F0E6FC00BF80BDE7
:1057B00080B500AF022002F0DFFC00BF80BD80B5E5
:1057C00000AF032002F0D8FC00BF80BD80B500AF61
:1057D000042002F0D1FC00BF80BD80B500AF0520E1
:1057E00002F0CAFC00BF80BD80B500AF062002F009
:1057F000C3FC00BF80BD80B500AF072002F0BCFC39
:1058000000BF80BD80B500AF082002F0B5FC00BF2E
:1058100080BD80B500AF092002F0AEFC00BF80BDA6
:1058200080B500AF0A2002F0A7FC00BF80BD80B5A4
:1058300000AF0B2002F0A0FC00BF80BD80B500AF20
:105840000C2002F099FC00BF80BD80B500AF0D2098
:1058500002F092FC00BF80BD80B500AF0E2002F0C8
:105860008BFC00BF80BD80B500AF0F2002F084FC30
:1058700000BF80BD80B500AF002002F095FC00BFE6
:1058800080BD80B500AF002003F058FB00BF80BD95
:1058900080B500AF012003F051FB00BF80BD80B593
:1058A00000AF022003F04AFB00BF80BD80B500AF0F
:1058B000032003F043FB00BF80BD80B500AF042090
:1058C00003F03CFB00BF80BD80B500AF052003F0B6
:1058D00035FB00BF80BD80B400AFFEE780B400AFF1
:1058E000FEE780B400AFFEE780B400AFFEE780B40F
:1058F00000AFFEE780B400AFFEE780B400AFFEE784
:1059000080B400AFFEE780B400AFFEE780B400AF24
:10591000FEE780B400AFFEE780B400AFFEE780B4DE
:1059200000AFFEE780B400AFFEE780B400AFFEE753
:1059300080B400AFFEE780B400AFFEE780B400AFF4
:10594000FEE780B400AFFEE780B400AFFEE780B4AE
:1059500000AFFEE780B400AFFEE780B400AFFEE723
:1059600080B400AFFEE780B400AFFEE780B400AFC4
:10597000FEE780B400AFFEE780B400AFFEE780B47E
:1059800000AFFEE780B400AFFEE780B400AFFEE7F3
:1059900080B400AFFEE780B400AFFEE780B400AF94
:1059A000FEE780B400AFFEE780B400AFFEE780B44E
:1059B00000AFFEE780B400AFFEE780B400AFFEE7C3
:1059C00080B400AFFEE780B400AFFEE780B400AF64
:1059D000FEE780B400AFFEE780B400AFFEE780B41E
:1059E00000AFFEE780B400AFFEE780B400AFFEE793
:1059F00080B400AFFEE780B400AFFEE780B400AF34
:105A0000FEE780B400AFFEE780B400AFFEE780B4ED
:105A100000AFFEE780B400AFFEE780B400AFFEE762
:105A200080B400AFFEE780B400AFFEE780B400AF03
:105A3000FEE780B400AFFEE780B400AFFEE70000F1
:105A400080B584B000AF7860114B1B68002B02D189
:105A50000F4B104A1A600E4B1B68FB600C4B1A6808
:105A60007B6813440C4A934207D903F0F9FF0346BD
:105A70000C221A604FF0FF3306E0054B1A687B6872
:105A80001344034A1360FB6818461037BD4680BDB7
:105A9000781500200000FF1F0000002080B582B0B4
:105AA00000AF7860034800F0D0F900BF0837BD466A
:105AB00080BD00BFA412002090B583B000AF154B8D
:105AC000154A1A6000237B600DE07A6813469B003C
:105AD00013449B00114A1A4411497B6841F8332052
:105AE0007B6801337B607B68002BEEDD0D4B0E4A3B
:105AF0001C1D13460FCB84E80F0000F0FEF8034690
:105B0000084A1360094B074A1A6000BF0C37BD46AC
:105B100090BD00BFA4120020B8120020D4120020B3
:105B2000AC120020A0150020E0C800009C1200204C
:105B300080B588B002AF87ED010A38600223FB60B0
:105B4000FFF7BAFF314800F070F90346BB603048F8
:105B500000F06BF90346BB60002300930023FA6852
:105B60002C492D4800F0A0F80346BB6000237B6160
:105B70002FE02A497B697A6941F823207B69DB00A1
:105B8000274A1344184600F050F90346BB607B696E
:105B90000133FA68D31A3B613B6913F1020F02DA51
:105BA0006FF001033B617A6913469B0013449B002D
:105BB0001C4A98187B699B00184A134400930023E1
:105BC0003A69194900F070F80346BB607B690133FC
:105BD0007B617B69002BCCDD0023144A0121144832
:105BE00000F0B0F80346BB60D7ED017A9FED117A63
:105BF00067EE877AFCEEE77A17EE901A0C4800F011
:105C0000C8F800BF1837BD4680BD00BFA4120020F1
:105C10009C120020F5320000B8120020B4120020BF
:105C2000AC120020D4120020953200009D5A0000D2
:105C30007C15002000007A4480B400AFFEE700BF6E
:105C400080B483B000AF78607B68013B032B0BD836
:105C500001A252F823F000BF695C0000695C0000FB
:105C6000695C0000695C000000BFFEE7704700BF90
:105C7000704700BF0020002104460D46084803F08D
:105C8000E9FE03F02DFF2046294600F0C7F905483C
:105C9000002100F07FFA00F0D5F903F0E7FE0000E4
:105CA0008D9A0000E0C8000080B586B000AFF860B3
:105CB000B9607A603B60FB68BA685A60FB687A68D2
:105CC0009A60FB680122DA603A68FB681A61FB6837
:105CD0000433396A184600F05DFA0246FB681A6020
:105CE000FB681B68002B14BF01230023DBB27B6120
:105CF0007B6918461837BD4680BD80B500AF00F0FF
:105D00009BFA0346184680BD80B584B000AF78602A
:105D100000F092FA0346FB60F86800F099FA034637
:105D2000BB6000BF1037BD4680BD84B090B400AFEB
