:1000000000000020FD0400005F370000653700009D
:100010006B370000713700007737000000000000E8
:100020000000000000000000000000006D0500005E
:100030007D3700000000000013060000730600007A
:100040001D3600002B360000393600004736000010
:100050005536000063360000713600007F36000020
:100060008D3600009B360000A9360000B736000030
:10007000C5360000D3360000E1360000EF36000040
:10008000FD36000083370000893700008F370000FD
:10009000953700009B370000A1370000A73700000C
:1000A000AD370000B3370000B9370000BF3700009C
:1000B000C5370000CB370000D13700000B370000F8
:1000C000D737000019370000DD3700002737000060
:1000D000E337000035370000E9370000EF37000054
:1000E000F5370000FB37000001380000073800003A
:1000F0000D38000013380000193800001F380000C8
:100100000D0500000D0500000D0500000D050000A7
:10011000253800002B380000313800003738000047
:100120003D38000043380000493800004F380000D7
:10013000553800005B380000613800006738000067
:100140006D38000073380000433700007938000034
:10015000513700007F380000853800008B380000E0
:1001600091380000973800009D380000A338000047
:10017000A9380000AF380000B5380000BB380000D7
:10018000C13800000D0500000D0500000D05000040
:100190000D0500000D0500000D0500000D05000017
:1001A0000D0500000D0500000D0500000D05000007
:1001B0000D0500000D0500000D0500000D050000F7
:1001C0000D0500000D0500000D0500000D050000E7
:1003F0000D0500000D0500000D050000FFFFFFFFCB
:10040000FFFFFFFFFFFFFFFFFFFFFFFFFEFFFFFFFD
:1004400010B5054C237833B9044B13B10448AFF30E
:1004500000800123237010BD180E00200000000052
:10046000E4A4000008B5034B1BB103490348AFF3F4
:10047000008008BD000000001C0E0020E4A4000065
:10048000A3F5803A704700BF174B002B08BF134BF2
:100490009D46FFF7F5FF00218B460F461348144A8F
:1004A000121A06F07FFF0E4B002B00D098470D4B21
:1004B000002B00D098470020002104000D000D48BB
:1004C000002802D00C4806F049FC06F08DFC200004
:1004D000290002F027FA06F04DFC00BF00000800DA
:1004E00000000000493A000000000020180E002023
:1004F000803F00205D6D0000956D000072B602F037
:10050000BDFD02F053FD62B6FFF7BEFFFFF7FEBF71
:1005100080F309887047EFF309807047684680F3DD
:1005200009885A480078C00714BF0220032080F3CE
:1005300014887047DFF858C1EFF305831B0618BF16
:100540006047EFF31483DB0708BF604700DF7047A5
:10055000DFF840C1EFF305831B0618BF6047EFF3D8
:100560001483DB0708BF604700DF7047EFF30980A3
:10057000816911F8021CE1BB90E80F1010B5E0474B
:10058000BDE81040EFF3098C8CE80700424B93E87C
:100590000600914208BF704741B91EF0100F16D1F6
:1005A0003E49086820F00100086010E01EF0100FBE
:1005B00006BF2CED108A0120002081F825002CE9CF
:1005C000F00FC1F828C00CB404F0C6FC0CBC1A60D3
:1005D000D2F828C0BCE8F00F92F8250000280EBF22
:1005E0006FF0020E6FF0120EBCEC108A8CF30988CB
:1005F000704710B52A4A1268914209D8294C54F81C
:10060000214090E80F10A047EFF3098C8CE80F0011
:1006100010BD10B504F012FCBDE810401E4B93E86D
:100620000600914208BF7047EFF3098C1EF0100FCF
:1006300006BF2CED108A0120002081F825002CE94E
:10064000F00FC1F828C00CB404F086FC0CBC1A6092
:10065000D2F828C0BCE8F00F92F8250000280EBFA1
:100660006FF0020E6FF0120EBCEC108A8CF309884A
:10067000704710B504F052FCFFF7CEBF10B504F080
:100680004BFC04F04BFCFFF7C7BF0000F4990000DF
:10069000C9470000E54700001C3F002034EF00E0A0
:1006A00000000000FCFFFFFF81F0004102E000BFFE
:1006B00083F0004330B54FEA41044FEA430594EA22
:1006C000050F08BF90EA020F1FBF54EA000C55EA5D
:1006D000020C7FEA645C7FEA655C00F0E2804FEA2E
:1006E0005454D4EB5555B8BF6D420CDD2C4480EA10
:1006F000020281EA030382EA000083EA010180EA40
:10070000020281EA0303362D88BF30BD11F0004F8D
:100710004FEA01314FF4801C4CEA113102D04042C3
:1007200061EB410113F0004F4FEA03334CEA1333FE
:1007300002D0524263EB430394EA050F00F0A78016
:10074000A4F10104D5F1200E0DDB02FA0EFC22FA11
:1007500005F2801841F1000103FA0EF2801843FA05
:1007600005F359410EE0A5F120050EF1200E012AF6
:1007700003FA0EFC28BF4CF0020C43FA05F3C01834
:1007800051EBE37101F0004507D54FF0000EDCF1AD
:10079000000C7EEB00006EEB0101B1F5801F1BD356
:1007A000B1F5001F0CD349085FEA30004FEA3C0C5A
:1007B00004F101044FEA445212F5800F80F09A8050
:1007C000BCF1004F08BF5FEA500C50F1000041EB54
:1007D000045141EA050130BD5FEA4C0C404141EB58
:1007E0000101013C28BFB1F5801FE9D291F0000F53
:1007F00004BF01460020B1FA81F308BF2033A3F102
:100800000B03B3F120020CDA0C3208DD02F1140CF8
:10081000C2F10C0201FA0CF021FA02F10CE002F133
:100820001402D8BFC2F1200C01FA02F120FA0CFC2C
:10083000DCBF41EA0C019040E41AA2BF01EB045175
:10084000294330BD6FEA04041F3C1CDA0C340EDC73
:1008500004F11404C4F1200220FA04F001FA02F3B6
:1008600040EA030021FA04F345EA030130BDC4F174
:100870000C04C4F1200220FA02F001FA04F340EA69
:100880000300294630BD21FA04F0294630BD94F01A
:10089000000F83F4801306BF81F480110134013D01
:1008A0004EE77FEA645C18BF7FEA655C29D094EA72
:1008B000050F08BF90EA020F05D054EA000C04BFF0
:1008C0001946104630BD91EA030F1EBF00210020DB
:1008D00030BD5FEA545C05D14000494128BF41F07A
:1008E000004130BD14F580043CBF01F5801130BDDE
:1008F00001F0004545F0FE4141F470014FF0000069
:1009000030BD7FEA645C1ABF194610467FEA655C19
:100910001CBF0B46024650EA013406BF52EA0335BB
:1009200091EA030F41F4002130BD00BF90F0000FA9
:1009300004BF0021704730B54FF4806404F13204E5
:100940004FF000054FF0000150E700BF90F0000F9E
:1009500004BF0021704730B54FF4806404F13204C5
:1009600010F0004548BF40424FF000013EE700BF95
:1009700042004FEAE2014FEA31014FEA02701FBF25
:1009800012F07F4393F07F4F81F06051704732F057
:100990007F4208BF704793F07F4F04BF41F40021AE
:1009A000704730B54FF4607401F0004521F000410C
:1009B0001CE700BF50EA010208BF704730B54FF096
:1009C00000050AE050EA010208BF704730B511F097
:1009D000004502D5404261EB41014FF4806404F1CF
:1009E00032045FEA915C3FF4D8AE4FF003025FEA55
:1009F000DC0C18BF03325FEADC0C18BF033202EBD9
:100A0000DC02C2F1200300FA03FC20FA02F001FA32
:100A100003FE40EA0E0021FA02F11444BDE600BFD5
:100A200070B54FF0FF0C4CF4E06C1CEA11541DBF84
:100A30001CEA135594EA0C0F95EA0C0F00F0DEF84F
:100A40002C4481EA030621EA4C5123EA4C5350EA34
:100A5000013518BF52EA033541F4801143F4801385
:100A600038D0A0FB02CE4FF00005E1FB02E506F016
:100A70000042E0FB03E54FF00006E1FB03569CF06B
:100A8000000F18BF4EF0010EA4F1FF04B6F5007F71
:100A900064F5407404D25FEA4E0E6D4146EB0606E3
:100AA00042EAC62141EA55514FEAC52040EA5E506C
:100AB0004FEACE2EB4F1FD0C88BFBCF5E06F1ED816
:100AC000BEF1004F08BF5FEA500E50F1000041EB4D
:100AD000045170BD06F0004646EA010140EA0200FA
:100AE00081EA0301B4EB5C04C2BFD4EB0C0541EA1C
:100AF000045170BD41F480114FF0000E013C00F331
:100B0000AB8014F1360FDEBF002001F0004170BD54
:100B1000C4F10004203C35DA0C341BDC04F114046D
:100B2000C4F1200500FA05F320FA04F001FA05F2F9
:100B300040EA020001F0004221F0004110EBD370C6
:100B400021FA04F642EB06015EEA430E08BF20EAF2
:100B5000D37070BDC4F10C04C4F1200500FA04F395
:100B600020FA05F001FA04F240EA020001F0004127
:100B700010EBD37041F100015EEA430E08BF20EA9A
:100B8000D37070BDC4F1200500FA05F24EEA020EE2
:100B900020FA04F301FA05F243EA020321FA04F011
:100BA00001F0004121FA04F220EA020000EBD370C8
:100BB0005EEA430E08BF20EAD37070BD94F0000FC8
:100BC0000FD101F00046400041EB010111F4801FFC
:100BD00008BF013CF7D041EA060195F0000F18BFAD
:100BE000704703F00046520043EB030313F4801FE9
:100BF00008BF013DF7D043EA0603704794EA0C0FA3
:100C00000CEA135518BF95EA0C0F0CD050EA4106B8
:100C100018BF52EA4306D1D181EA030101F0004135
:100C20004FF0000070BD50EA410606BF104619465D
:100C300052EA430619D094EA0C0F02D150EA013669
:100C400013D195EA0C0F05D152EA03361CBF1046AA
:100C500019460AD181EA030101F0004141F0FE4149
:100C600041F470014FF0000070BD41F0FE4141F4CD
:100C7000780170BD70B54FF0FF0C4CF4E06C1CEACD
:100C800011541DBF1CEA135594EA0C0F95EA0C0F82
:100C900000F0A7F8A4EB050481EA030E52EA03353D
:100CA0004FEA013100F088804FEA03334FF080555E
:100CB00045EA131343EA12634FEA022245EA11158B
:100CC00045EA10654FEA00260EF000419D4208BF3C
:100CD000964244F1FD0404F5407402D25B084FEAE9
:100CE0003202B61A65EB03055B084FEA32024FF495
:100CF00080104FF4002CB6EB020E75EB030E22BFF2
:100D0000B61A754640EA0C005B084FEA3202B6EBB1
:100D1000020E75EB030E22BFB61A754640EA5C0060
:100D20005B084FEA3202B6EB020E75EB030E22BFF0
:100D3000B61A754640EA9C005B084FEA3202B6EBF1
:100D4000020E75EB030E22BFB61A754640EADC00B0
:100D500055EA060E18D04FEA051545EA16754FEA12
:100D600006164FEAC30343EA52734FEAC2025FEA30
:100D70001C1CC0D111F4801F0BD141EA00014FF0BF
:100D800000004FF0004CB6E711F4801F04BF014390
:100D90000020B4F1FD0C88BFBCF5E06F3FF6AFAEAC
:100DA000B5EB030C04BFB6EB020C5FEA500C50F13C
:100DB000000041EB045170BD0EF0004E4EEA1131BF
:100DC00014EB5C04C2BFD4EB0C0541EA045170BDC6
:100DD00041F480114FF0000E013C90E645EA060E0A
:100DE0008DE60CEA135594EA0C0F08BF95EA0C0F38
:100DF0003FF43BAF94EA0C0F0AD150EA01347FF480
:100E000034AF95EA0C0F7FF425AF104619462CE756
:100E100095EA0C0F06D152EA03353FF4FDAE1046B9
:100E2000194622E750EA410618BF52EA43067FF40A
:100E3000C5AE50EA41047FF40DAF52EA43057FF49A
:100E4000EBAE12E74FF0FF3C06E000BF4FF0010CA5
:100E500002E000BF4FF0010C4DF804CD4FEA410C09
:100E60007FEA6C5C4FEA430C18BF7FEA6C5C1BD0D6
:100E700001B050EA410C0CBF52EA430C91EA030F57
:100E800002BF90EA020F0020704710F1000F91EAB4
:100E9000030F58BF994208BF90422CBFD8176FEA82
:100EA000E37040F0010070474FEA410C7FEA6C5C50
:100EB00002D150EA013C07D14FEA430C7FEA6C5C57
:100EC000D6D152EA033CD3D05DF8040B704700BF83
:100ED0008446104662468C461946634600E000BFD1
:100EE00001B5FFF7B7FF002848BF10F1000F01BDA3
:100EF0004DF808EDFFF7F4FF0CBF012000205DF86E
:100F000008FB00BF4DF808EDFFF7EAFF34BF0120F2
:100F100000205DF808FB00BF4DF808EDFFF7E0FF8B
:100F200094BF012000205DF808FB00BF4DF808EDDC
:100F3000FFF7CEFF94BF012000205DF808FB00BF43
:100F40004DF808EDFFF7C4FF34BF012000205DF825
:100F500008FB00BF4A0011D212F5001211D20DD5C4
:100F60006FF47873B3EB62520ED44FEAC12343F0AF
:100F7000004343EA505323FA02F070474FF0000059
:100F8000704750EA013002D14FF0FF3070474FF008
:100F90000000704753B94AB9002908BF00281CBF98
:100FA0004FF0FF314FF0FF3001F0C0B8ADF1080C49
:100FB0006DE904CE00F006F8DDF804E0DDE9022377
:100FC00004B070472DE9F047089D04468C46002B7D
:100FD00040F083808A42174647D9B2FA82F242B182
:100FE000C2F1200024FA00F09140974040EA010C41
:100FF00094404FEA1748230CBCFBF8F61FFA87FE13
:1010000008FB16C143EA014306FB0EF1994209D9D8
:10101000FB1806F1FF3080F01981994240F21681E9
:10102000023E3B445B1AA4B2B3FBF8F008FB10335A
:1010300044EA034400FB0EFEA64509D93C1900F121
:10104000FF3380F00581A64540F2028102383C441E
:1010500040EA0640A4EB0E0400261DB1D440002354
:10106000C5E900433146BDE8F08702B9FFDEB2FAB8
:1010700082F2002A50D1CB1B4FEA174E1FFA87F895
:101080000126B3FBFEFC210C0EFB1C3341EA03419D
:1010900008FB0CF38B4207D979180CF1FF3002D210
:1010A0008B4200F2E9808446C91AA3B2B1FBFEF07C
:1010B0000EFB101143EA014408FB00F8A04507D9D4
:1010C0003C1900F1FF3302D2A04500F2D980184646
:1010D000A4EB080440EA0C40BFE78B4209D9002D7D
:1010E00000F0B1800026C5E9000130463146BDE878
:1010F000F087B3FA83F6002E4AD18B4202D38242A4
:1011000000F2B880841A61EB030101208C46002DA7
:10111000A8D0C5E9004CA5E7C2F1200320FA03F6E8
:10112000974001FA02F04FEA174ED9403043030CC2
:10113000B1FBFEF61FFA87F80EFB161143EA0143D6
:1011400006FB08F1994204FA02F409D9FB1806F1EA
:10115000FF3C80F08D80994240F28A80023E3B4401
:101160005B1A81B2B3FBFEF00EFB103341EA034180
:1011700000FB08F38B4207D9791800F1FF3C73D2CA
:101180008B4271D902383944CB1A40EA064678E7D7
:10119000C6F1200C03FA06F422FA0CF31C4320FAE1
:1011A0000CF701FA06F34FEA144E21FA0CF11F4333
:1011B0003B0CB1FBFEF91FFA84F80EFB191143EA50
:1011C000014109FB08FA8A4502FA06F200FA06F321
:1011D00008D9611809F1FF3048D28A4546D9A9F1EA
:1011E00002092144A1EB0A01BFB2B1FBFEF00EFBE4
:1011F000101147EA014700FB08F8B84507D9E7197D
:1012000000F1FF312ED2B8452CD90238274440EAEC
:101210000940A7EB0807A0FB02894F45C64649468F
:101220001AD317D05DB1B3EB0E0267EB010707FAD3
:101230000CFCF2404CEA0202F740C5E90027002608
:101240003146BDE8F0872E4628460BE70646E9E61C
:101250001846FDE64345E5D2B8EB020E69EB040102
:101260000138DFE70846D2E760468DE78146B9E7F7
:10127000664675E730464AE7ACF1020C394413E79D
:1012800002383C4424E700BF03685A004CBF43F0D7
:10129000004323F000431844704700BF2DE9F84392
:1012A00029B34F1E044615463E464FF0000808EB92
:1012B000060101EBD171491004EBC1094846FFF763
:1012C000E3FF0346C80008308F42204409D0AB42F8
:1012D00009D8FFF7D9FF0138A8420AD201F1010865
:1012E000E5E7AB4205D9884501D04E1EDFE74FF058
:1012F00000094846BDE8F883012807D0022807D036
:10130000044B00280CBF1846002070470248704765
:1013100002487047BD190000C1190000C51900003E
:1013200030B5234B83B004468D1E3BB301A928463C
:10133000AFF30080E8B101992A46FFF7AFFF0146FD
:10134000B8B1FFF7A1FF4B68A064012B2BD0002B95
:1013500001F1040023DBFFF797FF0023C4E9130327
:101360000368002B10DBFFF78FFF2061002003B024
:1013700030BD00230920236103B030BD0D490E4864
:10138000091AC9100191D7E7C3F30360FFF7B4FF4F
:101390000028206114BF0020092003B030BD0123C4
:1013A000C4E91303DCE7002323610520DFE700BF66
:1013B0000000000058A8000058A600000368DA07E3
:1013C00010B5044606D49B0700F1480009D500F08B
:1013D0004BFC2368590709D51A070ED5DB0613D530
:1013E00010BD00F039FC23685907F5D404F1D00092
:1013F00000F042FC23681A07F0D404F5A87000F04E
:1014000043FC2368DB06EBD404F5E870BDE810402C
:1014100000F07EBC0346006800B11844704700BF6E
:1014200009207047704700BF70B504460E46316C06
:101430002046FFF775FF054688B9336C6361324675
:1014400023692146012098470828F0D0072806D1B3
:101450002846316CFFF7E6FF301D00F0F1FB05F088
:1014600057FC00BF2DE9F0470D1D064614460FCD71
:10147000ADF5727D0DF10C0CACE80F000FCDACE8B2
:101480000F000FCDACE80F0095E80F0002ADF76834
:10149000D6F818808CE80F0000232B6021E02B6C1D
:1014A00073614FF4F07229467AA800F041FE336967
:1014B0007AAA314650469847889BCDE90058214684
:1014C0006B648146334632460120B8470446E8B98A
:1014D0004FF4F0727AA9284600F02AFEB9F1080FFD
:1014E0001BD1296C3046FFF71BFF09345FFA84FAE1
:1014F00081460028D3D0AB6B4AF01001CDE90058EB
:1015000032466B6401203346B84708B14FF00909F1
:1015100048460DF5727DBDE8F087B9F1070FF5D1AA
:101520002046296CFFF77EFF03A800F089FB00BF6F
:10153000406C7047F0B5CB6B0B640E1D0F46054633
:101540000FCEF9B001AC0FC40FCE0FC40FCE0FC435
:1015500096E80F004FF0FF3684E80F00009606E093
:101560002B696A46294698470828044608D11099ED
:101570002846FFF7D5FE0028F2D0092079B0F0BD4B
:101580006846FFF71BFF062CF7D139462846FFF7C0
:101590004BFF00BF30B4DD6BC160826119461D6432
:1015A000002230BC5EE700BF70B5C66843690B64BB
:1015B000AEB903690A4604460D4601460220984723
:1015C000072805D008280FD129462046FFF72CFF11
:1015D0003046296CFFF726FF281D00F031FB012261
:1015E000FFF740FF05F094FB05F092FBC2681AB1CB
:1015F000CA6B0A64002235E79CE700BF704700BF52
:10160000836801460BB1012018477047012912D0A9
:1016100009D873B90F2A0CD800EB82021846536818
:10162000009A136070470339012994BF01200220FA
:101630007047022070470846704700BF10B584B05D
:10164000002303AC0A4600941946FFF7DFFF039816
:1016500004B010BD012912D009D873B90F2A0CD8D3
:1016600000EB8200009A1268426018467047033906
:10167000012994BF012002207047022070470846CC
:10168000704700BF10B584B0002303AC03920094F0
:101690000A461946FFF7DEFF04B010BDF0B5D36B64
:1016A0001364151D8C4606460FCDADF50F7D17ACA6
:1016B0000FC40FCD0FC40FCD0FC495E80F004FF02E
:1016C000FF3784E80F006546169710E0FFF7DAFF52
:1016D000294616A8B047034616AA6946082083B9CA
:1016E000049B9847052804460CD0092809D0269960
:1016F0006846FFF715FE03466A460C2116A8002B24
:10170000E4D0092416A8FFF759FE20460DF50F7DF9
:10171000F0BD00BF2DE9F04FCC6C89B00D4654F8F8
:10172000041B0694174600F003081E46002B79D0D0
:101730000B0CDAB209048DF81D30022304EB82048D
:1017400005918DF81C302B6DB8F1020F08BFAC6B02
:1017500013F001030CD0384605A900F073FB18B94B
:10176000082009B0BDE8F08F092009B0BDE8F08F6E
:10177000D4F800A0BAF1000FEDD0019300F00803F7
:101780000293022E4AD0B4F800A0B4F802900434B8
:10179000AA6C29F0010B0F2138469344FFF74EFF46
:1017A000834539D82AF001025A44824294BF00206E
:1017B00001204FEA490303F002030AF0010A43EA59
:1017C0000A03012B49D0022B32D0002BCCD1B8F127
:1017D000000F02D0002840F0CD800434D4F800A0DF
:1017E000BAF1000FCDD105A9384600F02BFB002837
:1017F000BAD1019B002BB3D00F213846FFF71EFF53
:101800000E2102463846FFF73DFF38466A4A0F214F
:10181000FFF738FF0720A8E70020CAE7D4F80490B4
:101820000834B5E7090203230591ADF81C308AE7B7
:10183000236823F0004BB8F1000F45D128B1029A7C
:10184000002A5CD0BBF1000F74D0002B00DA043406
:101850000BF1010B04EB8B04C0E7B8F1000F19D1B9
:10186000B0B1D4E90023991C4FEAD2723FF47CAFA7
:1018700005F158010133049100F09080201DFFF71D
:10188000C9FD04AB01462846AFF3008000285BD1B8
:101890000834A3E70D213846D5F82090FFF7CEFE97
:1018A0008145F5D1AB6A9C42F2D12046FFF7ECFCB2
:1018B0000F2102463846FFF7E5FE38462A4600214A
:1018C000FFF7E0FE072050E70D213846D5F82090BD
:1018D000FFF7B4FE814501D02368B6E7AB6A9C42AE
:1018E000FAD104220021C5E90B12A318C5F828B0CB
:1018F0006B6323688B4259DB01230193A8E705F151
:101900005803CDF80C8004F1040AB04691461E46F7
:101910000DE00496FFF77EFD04AB01460022284649
:10192000AFF3008009F101090AF1040AE8B9D945C9
:101930005046EED138460D21FFF780FE049B286209
:10194000C5E90934062010E781460D213846FFF726
:1019500075FEB9F1020F286225D12B46049A43F88F
:101960002C2F6B62AC620620FFE646462368DDF84A
:101970000C806AE72046FFF787FC04340246AC631C
:1019800028461446AFF3008000283FF4EDAE3846F9
:1019900022460F21FFF776FE0720E6E638460D21A6
:1019A000FFF74CFE2862049B6B62DBE70BF1010042
:1019B00004EB80007AE700BF000000000023A9E6E6
:1019C0000123A7E60223A5E62DE9F0430646C3B0AE
:1019D00015461C46042900F2B980DFE801F09A534D
:1019E000B7290300002C40F0B180102A00F2AE802D
:1019F0000368D80600F1F38020AF384600F092F972
:101A0000B06B0023012404FA03F22A42014604D0F9
:101A100051F8042B47F8232008460133042BF2D158
:101A2000B063384600F074F9002043B0BDE8F0839D
:101A3000032C40F08B8094B204EB1243102B4FEA3E
:101A4000124500F2838003681F0700F1D08020AFA9
:101A5000384600F03BF907EBC501B56B54B10B46B6
:101A6000E81A01EBC401E4001A5843F8042B8B4236
:101A7000FAD125443846B56300F006F9002043B09A
:101A8000BDE8F083012C4FEA124895B25AD0052CDC
:101A90005CD108EB0509B9F1200F57D8B8F10F0F49
:101AA00077D9A946002D40F08880B36B6DB320AF85
:101AB0004FF0000907EBC807043F03EBC50553F8D7
:101AC000041B47F8041FAB42F9D1B9F1000F0FD046
:101AD0006F464146102938BF102107EBC1018439F8
:101AE00003EBC90553F8040B41F8040FAB42F9D1DD
:101AF000012C00F08480B8F10F0FB56345D9B9F11E
:101B0000000F02D0684600F0B7F8002043B0BDE8EF
:101B1000F083DCB9876B2346012094B206F1040CF4
:101B200000FA03F22242394604D051F8042B4CF853
:101B300023200F460133102BF2D115F40050E4D1CD
:101B4000B76304E008EB0503102B03D9022043B070
:101B5000BDE8F083B8F10F0FF8D83368DA0706D57F
:101B6000304623F0030340F8483B00F079F820AFFB
:101B7000384600F075F8B36B002D99D11D46043539
:101B8000B563384600F068F8BFE720A800F06CF8AD
:101B9000B5E7B9F1100F40D9A9F110093368D90799
:101BA00008D523F00103304643F0020340F8483BD8
:101BB00000F05EF8B9F1000F32D033685A0720D434
:101BC000B8F10F0F25D96F463846C8F1100500F05F
:101BD00057F8002DB36B7FF77CAF20AF6AE723F097
:101BE0001003336006F5E87000F09CF804E723F07A
:101BF0000803036000F5A87000F068F827E720AF3D
:101C0000BDE7304623F0040340F8D03B00F038F83D
:101C1000D6E720A800F02CF8D5E74FF00009BDE783
:101C2000B8F10F0F3FF641AF20AF384600F020F873
:101C3000B36B002D7FF43CAF384600F015F864E735
:101C400000F1340191E838009C46A6464CF8045D4A
:101C500090E8FF0FE54600BD90EC210B704700BFF8
:101C600080EC210B704700BF90EC200B704700BF49
:101C700080EC200B704700BFD0EC200B704700BFFA
:101C8000C0EC200B704700BFF0EC0201F0EC021139
:101C9000F0EC0221F0EC0231F0EC0241F0EC0251E8
:101CA000F0EC0261F0EC0271F0EC0281F0EC0291D8
:101CB000F0EC02A1F0EC02B1F0EC02C1F0EC02D1C8
:101CC000F0EC02E1F0EC02F1704700BFE0EC020141
:101CD000E0EC0211E0EC0221E0EC0231E0EC024128
:101CE000E0EC0251E0EC0261E0EC0271E0EC028118
:101CF000E0EC0291E0EC02A1E0EC02B1E0EC02C108
:101D0000E0EC02D1E0EC02E1E0EC02F1704700BF50
:101D1000B0FC0181B0FC0191B0FC01A1B0FC01B1AB
:101D2000704700BFA0FC0181A0FC0191A0FC01A1B3
:101D3000A0FC01B1704700BFEC4600B52DE9005092
:101D40002DE9FF1F4FF000032DE90C0001A9FFF75B
:101D5000F1FBDDF840E012B0704700BFEC4600B583
:101D60002DE900502DE9FF1F4FF000032DE90C0075
:101D700001A9FFF719FCDDF840E012B0704700BF81
:101D8000EC4600B52DE900502DE9FF1F4FF0000390
:101D90002DE90C0001A9FFF729FCDDF840E012B0A5
:101DA000704700BFEC4600B52DE900502DE9FF1F3C
:101DB0004FF000032DE90C0001ABFFF7EBFBDDF862
:101DC00040E012B0704700BFEC4600B52DE900506E
:101DD0002DE9FF1F4FF000032DE90C0001AAFFF7CA
:101DE0005DFCDDF840E012B0704700BF027A7AB9BE
:101DF000437AA3B14268013B10B4437213680321D4
:101E0000141D01721A024460026010BC180E704763
:101E10000368013A02721A020260180E7047B0207D
:101E2000704700BF00B585B003AA00230092194691
:101E30000C22FFF7EBFB039805B05DF804FB00BF35
:101E4000F0E700BF2DE9F043054685B00E464FF0A0
:101E500000083046FFF7CAFFB028044600F0B28001
:101E6000070620D500F0F003802B4DD0902B36D004
:101E7000A02B60D0B02B74D0C02B00F08B8000F072
:101E8000F803D02B0BD100F00702013242F40022FC
:101E9000052301212846FFF797FD0028D9D0092006
:101EA00005B0BDE8F0830DF10C0900231946870049
:101EB000CDF800900D222846FFF7A8FBFFB2039B48
:101EC000CDF80090043760064CBFDF1BFF180023DD
:101ED00019460D2228460397FFF7BCFBB9E700F02F
:101EE0000D030D2BDBD003AF002300F00F021946CA
:101EF00000972846FFF78AFB0023009719460D221A
:101F00002846FFF7A7FBA4E73046FFF76FFF240240
:101F10002043B0F5004FC2D004010023A2B21946FD
:101F20002846FFF751FD0028B9D114F4004F18BF1F
:101F30004FF001088DE7C24302F007034FF47F62C0
:101F40001A41010702F47F624FF0000348BF42F4D8
:101F5000804219462846FFF737FD00283FF479AF45
:101F60009DE7B12833D0B22800F08B80B32839D058
:101F700000F0FC03B42B92D000F0070201320123E1
:101F800042F4002219462846FFF71EFD00283FF4C0
:101F900060AF84E7C62842D0C7284CD000F0F803D1
:101FA000C02B5BD0C82860D0C9287FF478AF3046FA
:101FB000FFF71CFF020300F00F0002F47022013053
:101FC000024365E7B8F1000F18D0002068E73046FB
:101FD000FFF70CFF024600283FF461AF10F0F0035A
:101FE000D0D05CE73046FFF701FF010300F00F009F
:101FF00001F47021421C01230A43C3E703AC4346AA
:102000000E22414600942846FFF700FB0094284624
:1020100043460F224146FFF71DFB404640E730464E
:10202000FFF7E4FE010300F00F0001F47021421CF1
:1020300003230A43A6E73046FFF7D8FE02460028EE
:102040003FF42DAF10F0F0037FF429AF04212846B0
:10205000FFF7BAFC00283FF4FCAE20E700F00F02C7
:102060000132032342F420228CE73046FFF7BEFE04
:1020700000F0F00200F00F031032013343EA0232A5
:1020800006E700230DF10C090D221946CDF800904A
:102090002846FFF7BBFA3046FFF7A8FE02064FF0CE
:1020A00002070CD5039B00F07F00B8400344304684
:1020B0000393FFF79BFE030607F10707F2D4039B88
:1020C000CDF8009000F07F0403F50172BC400023BE
:1020D000144419460D2228460394FFF7BBFAB8E6CC
:1020E00010B5C26C84B0536803248DF80C401B02F9
:1020F00002F108040846D279019301A902948DF8EF
:102100000D20FFF79FFE04B010BD00BF08B5FFF71C
:1021100097FE806C08BD00BF08B5FFF791FEC06C4C
:10212000C379023300EB830008BD00BF704700BFD6
:10213000844641EA000313F003036DD1403A41D3D2
:1021400051F8043B40F8043B51F8043B40F8043B91
:1021500051F8043B40F8043B51F8043B40F8043B81
:1021600051F8043B40F8043B51F8043B40F8043B71
:1021700051F8043B40F8043B51F8043B40F8043B61
:1021800051F8043B40F8043B51F8043B40F8043B51
:1021900051F8043B40F8043B51F8043B40F8043B41
:1021A00051F8043B40F8043B51F8043B40F8043B31
:1021B00051F8043B40F8043B51F8043B40F8043B21
:1021C000403ABDD2303211D351F8043B40F8043BC1
:1021D00051F8043B40F8043B51F8043B40F8043B01
:1021E00051F8043B40F8043B103AEDD20C3205D3D1
:1021F00051F8043B40F8043B043AF9D2043208D0C9
:10220000D2071CBF11F8013B00F8013B01D30B883A
:1022100003806046704700BF082A13D38B078DD018
:1022200010F003038AD0C3F10403D21ADB071CBFEA
:1022300011F8013B00F8013B80D331F8023B20F854
:10224000023B7BE7043AD9D3013A11F8013B00F88D
:10225000013BF9D20B7803704B7843708B78837015
:102260006046704700000000000000000000000011
:1022700001F0FF01102A2BDB10F0070F08D010F837
:10228000013B013A8B422DD010F0070F42B3F6D13B
:10229000F0B441EA012141EA014122F007047FF054
:1022A00000070023F0E80256083C85EA010586EAAB
:1022B000010685FA47F5A3FA87F586FA47F6A5FAE7
:1022C00087F68EB9EED1F0BC01F0FF0102F00702F3
:1022D00032B110F8013B013A83EA010313B1F8D19E
:1022E0000020704701387047002D06BF354603387F
:1022F000073815F0010F07D1013015F4807F02BFB8
:10230000013015F4C03F0130F0BC0138704700BF08
:1023100000000000000000000000000000000000BD
:1023200000000000000000000000000000000000AD
:10233000000000000000000000000000000000009D
:1023400090F800F06DE9024520F007016FF0000CF5
:1023500010F0070491F820F040F049804FF000049D
:102360006FF00700D1E9002391F840F000F1080078
:1023700082FA4CF2A4FA8CF283FA4CF3A2FA8CF3B0
:102380004BBBD1E9022382FA4CF200F10800A4FA17
:102390008CF283FA4CF3A2FA8CF3E3B9D1E904236B
:1023A00082FA4CF200F10800A4FA8CF283FA4CF3A2
:1023B000A2FA8CF37BB9D1E9062301F1200182FA5C
:1023C0004CF200F10800A4FA8CF283FA4CF3A2FA62
:1023D0008CF3002BC6D0002A04BF04301A4612BA70
:1023E000B2FA82F2FDE8024500EBD2007047D1E973
:1023F000002304F00305C4F100004FEAC50514F002
:10240000040F91F840F00CFA05F562EA05021CBFD2
:1024100063EA050362464FF00004A9E780B590B077
:1024200000AF78600B46FB70FB78002B27D107F1DB
:10243000240300221A605A609A60DA601A615A61B5
:102440002D4A7B6852F833307B62012387F82830AD
:10245000012387F829304FF0FF333B6307F1240352
:10246000184603F017FD244A7B68DB001344012261
:102470001A717B68DB00204A1344FB6336E0FB786B
:10248000012B31D107F10C0300221A605A609A60C7
:10249000DA601A615A61184A7B6852F83330FB607F
:1024A00001233B754FF0FF33BB6107F10C03184666
:1024B00003F062FD104A7B68DB00134402221A71AC
:1024C0007B68292B0AD97B682C2B07D80A4A7B68A2
:1024D00052F833300121184603F08AFD7B68DB0097
:1024E000054A1344FB6301E00023FB63FB6B1846C2
:1024F0004037BD4680BD00BF0000002080B586B0DB
:1025000000AF78600B46FB707B687B617B69002BBA
:102510002FD07B691B79022B2BD17B691B681B0A8F
:10252000DBB23B617B691B68DBB2FB603B69012B63
:1025300005D1FB68162B08D0FB68152B05D03B692D
:10254000042B0FD1FB681A2B0CD17B691A68FB781E
:10255000012B14BF01230023DBB21946104603F000
:1025600047FD06E07B691B68FA781146184603F0C0
:102570003FFD00BF1837BD4680BD80B485B000AFB9
:1025800078607B68FB60FB68002B0ED0FB681B79D2
:10259000022B03D1FB6800221A7106E0FB681B794D
:1025A000012B02D1FB6800221A7100BF1437BD460F
:1025B0005DF8047B7047000080B584B000AFF86020
:1025C000B9601346FB71BB681F2B05D90D4B0E4A32
:1025D000FF210E4804F0A4FBFB68BA6853F82230D0
:1025E00023F0807323F4E063FA79120202F4E062CC
:1025F00043EA0201FB68BA6843F8221000BF1037B3
:10260000BD4680BD10990000A49900001C990000EF
:1026100080B483B000AF78600B46FB707B681B68AA
:1026200023F01802FB78DB0003F018031A437B68E1
:102630001A6000BF0C37BD465DF8047B7047000090
:1026400080B58EB000AF786187ED020B87ED001B7F
:10265000524A7B695B01134411331B78002B40F015
:102660008780002387F82830002387F8293000234B
:1026700087F82A308023FB62484A7B695B01134458
:102680001868464A7B695B01134404331968434A5E
:102690007B695B01134410331B781A46FFF78CFFEC
:1026A0003E4A7B695B01134408331B6807F128022B
:1026B0001146184603F016FA384A7B695B01134449
:1026C00008331B68DBB200220121184603F090FAA0
:1026D000324A7B695B011344113304221A702F4A7A
:1026E0007B695B01134403F11801D7E90223C1E9B7
:1026F000002302233B7600237B76284A7B695B011B
:1027000013441833D3E9002310461946FEF722FC80
:102710000346FB61D7E90001FEF71CFC03463B6260
:102720000023BB841D4A7B695B01134408331B688B
:102730001B4A52F823303B630021386BFFF768FFD8
:10274000164A7B695B01134408331868134A7B6996
:102750005B0113440C331B68DAB207F11803194606
:1027600003F0A4FA7B695B010C4A13447B630FE01E
:102770000A4A7B695B01134411331B78042B05D192
:102780007B695B01054A13447B6301E000237B63A3
:102790007B6B18463837BD4680BD00BF78010020EE
:1027A000409F000080B483B000AF786000BF0C375A
:1027B000BD465DF8047B704780B58AB000AFF86015
:1027C00087ED000BFB687B627B6A002B2CD07B6A59
:1027D0005B7C042B28D102233B7400237B747B6A2F
:1027E000D3E9062310461946FEF7B4FB03467B6186
:1027F000D7E90001FEF7AEFB0346BB610023BB83B4
:102800007B6A9B680A4A52F823303B620021386A8F
:10281000FFF7FEFE7B6A98687B6ADB68DAB207F135
:102820001003194603F042FA00BF2837BD4680BDA9
:10283000409F000080B485B000AF78607B68FB608B
:10284000FB68002B06D0FB685B7C042B02D1FB6885
:1028500000225A7400BF1437BD465DF8047B7047F0
:1028600080B483B000AF786000BF0C37BD465DF820
:10287000047B704780B586B000AF7861184B1B6849
:102880001B68002B0CBF01230023DBB21A46154B3B
:102890001A7011E03B461449184601F0C6F900F0E1
:1028A00067F80F4B1B681B68002B14BF0123002324
:1028B000DBB21A460D4B1A700A4B1B78DBB2002BA9
:1028C000E8D1084B00221A70786900F011F8002056
:1028D00001F004F9002318461837BD4680BD00BF3B
:1028E000B899000038040020400E0020370E002068
:1028F00080B582B000AF7860074B01221A60074BA9
:1029000000221A7000F090FA054801F07BF90023CC
:1029100018460837BD4680BD5C0E002038040020F4
:10292000380E002080B586B000AF7861396100F0C4
:1029300093FC00F05BFE0A4B1B6800221A6000F05B
:1029400013F900209FED070A01F01AF83B460649EB
:10295000184601F06AF9002318461837BD4680BDB5
:10296000B89900006F12833A380E00200000000072
:1029700090B583B000AF784BD3F8A030B3F1FF3FF0
:1029800006D0754BD3F8A0300133734AC2F8A0309B
:10299000714B93F8A430002B1FD16F4B012283F8A9
:1029A000A4206D4B012283F8A5206B4B0022C3F8B5
:1029B000A0200023BB7101237B71684BD3E9020186
:1029C0004FF00002664BFEF72BF802460B466549B6
:1029D000C1E900230123FB7176E05F4B93F8A5303A
:1029E000012B3BD10023BB7101237B710123FB71C0
:1029F000594BD3F8A040594BD3E9042354A1D1E952
:102A00000001FEF737F902460B4610461946534BB4
:102A1000D3E90023FDF74CFE02460B4643EC172B8F
:102A2000B0EE470AF0EE670A04F0F2F853EC102B10
:102A300010461946FEF78EFA03469C4244D3464B95
:102A4000022283F8A520444B0022C3F8A0200023D3
:102A50007B710023FB710123BB7135E000237B7187
:102A60000023FB710123BB713B4BD3F8A0403B4BD0
:102A700093ED007BB0EE470AF0EE670A04F0C8F869
:102A800053EC102B10461946FEF764FA03469C429D
:102A90001AD3314B012283F8A5202F4B0022C3F813
:102AA000A0200023BB7101237B712C4BD3E90201D1
:102AB0004FF000022A4BFDF7B3FF02460B462949AF
:102AC000C1E900230123FB71234BD3F888307A79C5
:102AD00011461846FFF712FD1F4B5B6FBA7911467E
:102AE0001846FFF70BFD1C4B1B6EFA791146184672
:102AF000FFF704FD184BDB6C00211846FFF7FEFCC6
:102B0000154B9B6B01211846FFF7F8FC124B5B6AD3
:102B100000211846FFF7F2FC0F4BD3F89C30114A06
:102B200092ED007BB0EE470AF0EE670A1846FFF719
:102B300043FE094B1B69094A127E11461846FFF7EE
:102B4000DDFC00BF0C37BD4690BD00BFAFF3008079
:102B500000000000004CED40680E00204004002002
:102B600000003440600E002080B582B000AFA44B5E
:102B700000221A6008220021A24804F013FCB022AF
:102B80000021A14804F00EFC9F4B012283F878201D
:102B90009D4B0022DA679C4B002283F878209A4BE9
:102BA000012283F8AD20994B7B60974B002283F87C
:102BB0008020954B0122DA6701210220FFF72EFCCD
:102BC00002467B681A61904B012283F880208E4B6D
:102BD000012283F864208C4B00229A668A4B0022E3
:102BE00083F86420884B012283F8AC20884B7B60FB
:102BF000854B002283F86C20834B01229A660121C9
:102C00000820FFF70BFC02467B681A617E4B01220D
:102C100083F86C207C4B012283F850207A4B0022F1
:102C20005A65794B002283F85020774B012283F8B4
:102C3000AB20784B7B60744B002283F85820724B9A
:102C400001225A6501210B20FFF7E8FB02467B6851
:102C50001A616D4B012283F858206B4B012283F8D7
:102C60003C20694B00221A64674B002283F83C2009
:102C7000654B012283F8AA20674B7B60624B0022E0
:102C800083F84420604B01221A6401210C20FFF7D5
:102C9000C5FB02467B681A615B4B012283F8442026
:102CA000594B012283F82820574B0022DA62564BF9
:102CB000002283F82820544B012283F8A920574B87
:102CC0007B60514B002283F830204F4B0122DA62A7
:102CD00001210A20FFF7A2FB02467B681A614A4BDA
:102CE000012283F83020484B01221A75464B0022FE
:102CF0009A61454B00221A75434B012283F8A820A4
:102D0000474B7B60404B00221A773F4B01229A6170
:102D100001210920FFF782FB02467B681A613A4BCA
:102D200001221A77384B012283F88C20364B00227F
:102D3000C3F89020344B002283F88C20324B0122C0
:102D400083F8A620374B3B602F4B002283F894205A
:102D50002D4B0122C3F890209FED251B9FED260BE4
:102D60000520FFF76DFC02463B681A61264BD3F83D
:102D70009C301846FFF716FD234B012283F8942060
:102D8000214B01221A70204B00225A601E4B002258
:102D90001A701D4B012283F8A7201B4B7B601A4B36
:102DA00000221A72184B01225A6001212A20FFF7D3
:102DB00035FB02467B681A61134B01221A72124BD3
:102DC0000022C3F8A020104B002283F8A4200E4B51
:102DD000002283F8A5200B494FF000024FF00003BA
:102DE000C1E9002300BF0837BD4680BDAFF30080B6
:102DF00000000000000000000000000000409F40B4
:102E0000180F0020600E0020680E0020E00E002049
:102E1000CC0E0020B80E0020A40E0020900E002042
:102E20007C0E0020F40E002080B500AF5E4B93F8BE
:102E30007830002B12D15C4B012283F878205A4B5A
:102E4000DB6F012B0AD1584B93F88030002B05D053
:102E5000554BD3F888301846FFF78FFB524B93F849
:102E60006430002B11D1504B012283F864204E4B6B
:102E70009B6E012B09D14C4B93F86C30002B04D086
:102E8000494B5B6F1846FFF778FB474B93F8503080
:102E9000002B11D1444B012283F85020424B5B6D33
:102EA000012B09D1404B93F85830002B04D03E4BF6
:102EB0001B6E1846FFF761FB3B4B93F83C30002B31
:102EC00011D1394B012283F83C20374B1B6C012B6D
:102ED00009D1354B93F84430002B04D0324BDB6CD6
:102EE0001846FFF74AFB304B93F82830002B11D1DE
:102EF0002D4B012283F828202B4BDB6A012B09D1B3
:102F0000294B93F83030002B04D0274B9B6B18468D
:102F1000FFF733FB244B1B7D002B0FD1224B0122EB
:102F20001A75214B9B69012B08D11F4B1B7F002B6E
:102F300004D01D4B5B6A1846FFF71FFB1A4B93F832
:102F40008C30002B19D1184B012283F88C20164BA2
:102F5000D3F89030012B10D1134B93F89430002B01
:102F60000BD0114BD3F89C301846FFF763FC0E4B87
:102F7000D3F89C301846FFF773FC0B4B1B78002BE3
:102F80000FD1094B01221A70074B5B68012B08D146
:102F9000054B1B7A002B04D0034B1B691846FFF727
:102FA000ECFA00BF80BD00BF680E002080B489B07D
:102FB00000AF294BFB60294A294B9A4216D00023C7
:102FC000FB610AE0264AFB6952F823202349FB698A
:102FD00041F82320FB690133FB61FB689B08FA6918
:102FE0009A42EFD31F4B1D4A9A6002E01D4B1C4AC8
:102FF0009A601D4BBB611D4B7B611D4BBB60BA686A
:103000007B69D31AFB6107E07A69531C7B61BB695A
:10301000591CB96112781A70FB695A1EFA61002BAB
:10302000F2D1144B3B61144B7B607A683B69D31A35
:10303000FB6104E03B695A1C3A6100221A70FB698B
:103040005A1EFA61002BF5D100BF00BF2437BD46E0
:103050005DF8047B704700BF000000000000000026
:103060000000000000ED00E00000002064A8000067
:103070007CB60000180E0020803F002080B400AF16
:103080006B4BD3F888306A4A43F47003C2F8883037
:10309000684B4CF22052DA81664B4DF62812DA81E9
:1030A000644B4FF4E9721A80634B1B78DBB203F078
:1030B0000103002B0FD0614B9B78DBB203F00803B8
:1030C000002B2ED05D4B9B78DBB25C4A43F00803AB
:1030D000DBB2937025E05A4B03F581531C331B6818
:1030E000574943F0005201F581531C331A60554B88
:1030F0001B6903F48073002B13D1524B1B6923F41B
:103100007C53504A43F4407313614E4B1B694D4A44
:1031100043F4807313614B4B1B694A4A23F40073D9
:103120001361494B2A221A70454B03F5825304332D
:103130004FF08A721A60424B1B6823F44023404AC6
:1031400043F4002313603E4B03F5805304331B68A4
:1031500023F440333A4943F4803201F58053043379
:103160001A60374B03F5815318331B68344943F415
:10317000007201F5815318331A60344B9B6C334A4B
:1031800023F0807323F4E0639364314B00221A72BE
:103190002F4B5B78DBB223F06003DBB22C4A43F0A9
:1031A0002003DBB253702B4B80221A70284B002275
:1031B0001A73274BBA221A7000BF254B9B79DBB2DA
:1031C00003F01003002BF8D1214BDB78DBB2204A4F
:1031D00003F01F03DBB2D3701D4B13221A711C4B7B
:1031E00018225A711A4B5B79DBB2194A43F040033B
:1031F000DBB2537100BF164B9B79DBB203F0400387
:10320000002BF8D0124B1B78DBB2114A03F03F03BE
:10321000DBB2137000BF0E4B9B79DBB203F00C03E3
:103220000C2BF8D100BF00BFBD465DF8047B704792
:1032300000ED00E00020054000F0074000D007400E
:103240000070044000D0034000E0074000900440BC
:10325000004006400050064080B483B000AF9C4B55
:103260001B78DBB203F0C003002B40F0DE80984BEC
:103270005B79DBB203F04003002B40F0B980944B44
:103280001B78DBB203F00403002B4ED1904B1B7B69
:10329000DBB203F00303002B02D0012B03D006E0C6
:1032A0008C4B7B6006E04FF400437B6002E08A4B6E
:1032B0007B6000BF864B5B78DBB203F03003002BF2
:1032C00023D0834B1B7BDBB203F00303012B1CD009
:1032D0007F4B1B78DBB203F03803302B05D0382B43
:1032E00007D14FF4C0637B800EE04FF4A0637B8076
:1032F0000AE0774B1B78DBB2DB0803F007032022E0
:1033000002FA03F37B8000BF09E0714B1B78DBB24C
:10331000DB0803F00703012202FA03F37B807B88BA
:103320007A68B2FBF3F37B6002E04FF400437B600A
:10333000674BDB78DBB203F0E003E02B51D0E02BEE
:1033400000F2B080C02B45D0C02B00F2AB80A02B88
:1033500039D0A02B00F2A680802B2DD0802B00F23C
:10336000A180602B21D0602B00F29C80402B15D0D7
:10337000402B00F29780002B02D0202B07D091E049
:103380007A6813469B001344DB017B608BE07A680C
:1033900013469B0013441B027B6084E07A6813464B
:1033A0001B019B1ADB017B607DE07A6813469B0062
:1033B00013445B027B6076E07B684FF4377202FB5C
:1033C00003F37B606FE07B684FF4B76202FB03F3AB
:1033D0007B6068E07B6840F6950202FB03F37B604C
:1033E00061E07B6840F6713202FB03F37B605AE0D8
:1033F000374B1B79DBB29BB203F01F039BB2013347
:103400007B807B88334AB2FBF3F37B60304B5B7984
:10341000DBB29BB203F01F039BB218337B807A8828
:103420007B6802FB03F37B603DE0294B1B78DBB23A
:1034300003F0C003402B1AD1254B5B78DBB203F0BD
:103440000103002B03D14FF400437B602BE0204BA2
:103450001B7ADBB25B0803F00703012202FA03F3D5
:103460007B807B881D4AB2FBF3F37B601BE0184B2B
:103470001B78DBB203F0C003802B23D1144B1B7BE2
:10348000DBB203F00303002B02D0012B03D006E0D4
:10349000104B7B6007E04FF400437B6003E00E4B72
:1034A0007B6000E000BF0E4B03F5825304331B68C2
:1034B0001B0F03F00F0301337A68B2FBF3F3094AE1
:1034C000136000E000BF0C37BD465DF8047B704719
:1034D0000040064080F0FA02006CDC0200093D006A
:1034E000007004406004002080B584B000AFF86034
:1034F000B9601346FB71BB681F2B05D90D4B0E4AF3
:10350000FF210E4803F00CFCFB68BA6853F8223028
:1035100023F0807323F4E063FA79120202F4E0628C
:1035200043EA0201FB68BA6843F8221000BF103773
:10353000BD4680BD54990000D499000060990000F8
:1035400080B483B000AF78600B46FB707B68FA787C
:103550001A7000BF0C37BD465DF8047B7047000051
:1035600080B584B000AF3B4600221A605A609A6072
:10357000DA60064B3B6002237B723B461946002013
:1035800002F0DEF800BF1037BD4680BD80F0FA02C1
:1035900080B584B000AF074A3B1D07CA83E8070027
:1035A0003B1D1946002002F017F900BF1037BD4639
:1035B00080BD00BF9899000080B500AF2A2108485F
:1035C000FFF7BEFF002212210648FFF78DFFFFF72D
:1035D000C7FFFFF7DDFF044802F054F900BF80BDCC
:1035E00000E0074000900440BC99000080B582B024
:1035F00000AF01F0E1FF0023FB7106E0FB79184604
:1036000002F0B8F9FB790133FB71FB79042BF5D992
:10361000FFF7D2FF00BF0837BD4680BD80B500AFC1
:10362000002002F0E9F900BF80BD80B500AF0120A5
:1036300002F0E2F900BF80BD80B500AF022002F0C9
:10364000DBF900BF80BD80B500AF032002F0D4F9E4
:1036500000BF80BD80B500AF042002F0CDF900BFEF
:1036600080BD80B500AF052002F0C6F900BF80BD67
:1036700080B500AF062002F0BFF900BF80BD80B565
:1036800000AF072002F0B8F900BF80BD80B500AFE1
:10369000082002F0B1F900BF80BD80B500AF09205D
:1036A00002F0AAF900BF80BD80B500AF0A2002F089
:1036B000A3F900BF80BD80B500AF0B2002F09CF9DC
:1036C00000BF80BD80B500AF0C2002F095F900BFAF
:1036D00080BD80B500AF0D2002F08EF900BF80BD27
:1036E00080B500AF0E2002F087F900BF80BD80B525
:1036F00000AF0F2002F080F900BF80BD80B500AFA1
:10370000002002F091F900BF80BD80B500AF00201D
:1037100003F036F800BF80BD80B500AF012003F094
:103720002FF800BF80BD80B500AF022003F028F85D
:1037300000BF80BD80B500AF032003F021F800BFBB
:1037400080BD80B500AF042003F01AF800BF80BD33
:1037500080B500AF052003F013F800BF80BD80B432
:1037600000AFFEE780B400AFFEE780B400AFFEE735
:1037700080B400AFFEE780B400AFFEE780B400AFD6
:10378000FEE780B400AFFEE780B400AFFEE780B490
:1037900000AFFEE780B400AFFEE780B400AFFEE705
:1037A00080B400AFFEE780B400AFFEE780B400AFA6
:1037B000FEE780B400AFFEE780B400AFFEE780B460
:1037C00000AFFEE780B400AFFEE780B400AFFEE7D5
:1037D00080B400AFFEE780B400AFFEE780B400AF76
:1037E000FEE780B400AFFEE780B400AFFEE780B430
:1037F00000AFFEE780B400AFFEE780B400AFFEE7A5
:1038000080B400AFFEE780B400AFFEE780B400AF45
:10381000FEE780B400AFFEE780B400AFFEE780B4FF
:1038200000AFFEE780B400AFFEE780B400AFFEE774
:1038300080B400AFFEE780B400AFFEE780B400AF15
:10384000FEE780B400AFFEE780B400AFFEE780B4CF
:1038500000AFFEE780B400AFFEE780B400AFFEE744
:1038600080B400AFFEE780B400AFFEE780B400AFE5
:10387000FEE780B400AFFEE780B400AFFEE780B49F
:1038800000AFFEE780B400AFFEE780B400AFFEE714
:1038900080B400AFFEE780B400AFFEE780B400AFB5
:1038A000FEE780B400AFFEE780B400AFFEE780B46F
:1038B00000AFFEE780B400AFFEE780B400AFFEE7E4
:1038C00080B400AFFEE7000080B584B000AF786040
:1038D000114B1B68002B02D10F4B104A1A600E4B84
:1038E0001B68FB600C4B1A687B6813440C4A9342BC
:1038F00007D903F039FA03460C221A604FF0FF3360
:1039000006E0054B1A687B681344034A1360FB68A2
:1039100018461037BD4680BD1C0F00200000FF1F59
:103920000000002080B582B000AF7860034800F04E
:1039300069F900BF0837BD4680BD00BF400E0020BA
:1039400098B500AF094B0A4A1A600A4B0A4A1C1D77
:1039500013460FCB84E80F0000F0B9F80346054A80
:103960001360064B034A1A6000BF98BD400E00204A
:10397000480E0020440F0020289A0000380E002036
:1039800080B586B002AF87ED010A38600223FB6084
:10399000FFF7D6FF164800F025F90346BB6015482F
:1039A00000F020F90346BB60002300930023FA686F
:1039B0001149124800F062F80346BB600023104A28
:1039C0000121104800F09BF80346BB60D7ED017A57
:1039D0009FED0D7A67EE877AFCEEE77A17EE901A84
:1039E000084800F0B3F800BF1037BD4680BD00BFE7
:1039F000400E0020380E002075280000480E0020E0
:103A000025390000200F002000007A4480B400AF68
:103A1000FEE700BF80B483B000AF78607B68013BF5
:103A2000032B0BD801A252F823F000BF3D3A00004F
:103A30003D3A00003D3A00003D3A000000BFFEE77D
:103A4000704700BF704700BF0020002104460D46AC
:103A5000084803F083F903F0C7F92046294600F02F
:103A6000B1F90548002100F069FA00F0BFF903F050
:103A700081F90000956D0000289A000080B586B09D
:103A800000AFF860B9607A603B60FB68BA685A6062
:103A9000FB687A689A60FB680122DA603A68FB6822
:103AA0001A61FB680433396A184600F047FA024687
:103AB000FB681A60FB681B68002B14BF01230023FE
:103AC000DBB27B617B6918461837BD4680BD80B587
:103AD00000AF00F085FA0346184680BD80B584B07B
:103AE00000AF786000F07CFA0346FB60F86800F0F5
:103AF00083FA0346BB6000BF1037BD4680BD80B56A
:103B000086B000AFF8607A603B600B46FB72FB68E2
:103B100003F10C02FB689A60FB687A685A60FB68E4
:103B20000433F97A3A68184600F070FB0246FB68E5
:103B30001A60FB681B68002B14BF01230023DBB253
:103B40007B617B6918461837BD4680BD80B584B05F
:103B500000AF786039607B681B683968184600F0F0
:103B600089FB0346FB60FB6818461037BD4680BDE5
:103B700084B080B582B000AF07F1100C8CE80F0064
:103B80003B69796A184600F04BFC03467B607B6812
:103B900018460837BD46BDE8804004B0704784B081
:103BA00080B500AF07F1080C8CE80F00BB68F9691D
:103BB000184600F055FC03461846BD46BDE8804057
:103BC00004B0704780B582B000AF786039607B6820
:103BD0004FF0FF323968184600F050FC786808371B
:103BE000BD4680BD80B485B000AF78607B6801229F
:103BF0005A600123FB60FB6818461437BD465DF828
:103C0000047B704780B584B002AF78607B681B6826
:103C10007A68526801921A6900920FCBFFF7A8FFE9
:103C2000034618460837BD4680BD80B584B002AF54
:103C3000786039603B681B683A68526801921A697B
:103C400000920FCBFFF7ABFF3B685A687B681146C9
:103C50001846FFF7B7FF78680837BD4680BD0000FB
:103C600000B5DFF80CC000DFDFF808C000DFFEE7BA
:103C7000DD3E0000F53E00002DE9F041344C237894
:103C800053B1344B1B68FF229A70334A0020012342
:103C900010702370BDE8F081304B3148196800F096
:103CA0000BFD00284CD101F079FB2A4B21781B68D1
:103CB000FF229A700029E8D12A4A1368002B44D0C9
:103CC000556845B12A78002A38D1191D890089B272
:103CD000284600F0B5FD244B244A1E68156096B3B3
:103CE0005D68EA1C062A2ED8DF688FB9291D304688
:103CF0003B463A4601F010FA054620B31C4B1D4ADC
:103D0000681E53F82050AB6A5A631B4B1D60BCE71A
:103D10003946134800F0DEFC8046A0B1291D41EA77
:103D2000072130460023424601F0F6F905460028F7
:103D3000E4D141460A4800F0F1FCE6E70D46CAE747
:103D40008520BDE8F0810025DFE71D46C3E700BF01
:103D5000D83E00201C3F0020D93E0020049A0000DD
:103D6000103200201C9A00000C9A0000043E002033
:103D7000D43D0020613C0000E03D002038B50F4CF0
:103D8000207808B1002038BD0D4D2B6893F8241021
:103D900001F072F92B68DA78FF2A03D19A6A20328F
:103DA00082F309886A682AB101F066FB0123237057
:103DB000002038BDC5E90023F6E700BFD93E00204A
:103DC0001C3F002010B5EFF305845CB9EFF31484B9
:103DD000E40703D5DFF810C000DF10BDBDE81040D8
:103DE000FFF74ABF822010BD793C000010B588B0B3
:103DF000EFF305841CBBEFF3148404F00304022CDE
:103E000024D0032C14D0012C16D008AC84F30988DC
:103E1000114C2478E40715D4032484F31488BFF3E9
:103E20004F8FBFF36F8FDFF834C000DF08B010BDD5
:103E3000094C2478E407F6D5FF2008B010BD822095
:103E400008B010BD022484F31488E8E7024C2478FB
:103E5000E407E8D4E0E700BFF49900007D3D0000EE
:103E600098B3F8B5066876B34768FB1C062B2AD8CA
:103E7000C26804460D46BAB11146154800F02AFC46
:103E8000064600B36268E1682068043242EA012114
:103E90002B46324601F040F9044660B931460C48E1
:103EA00000F03CFC2046F8BD0B463046391D01F0C1
:103EB00033F9044638B1601E064B074A53F8200018
:103EC000836A5A63F8BD0020F8BD0020704700BF28
:103ED00010320020D43D0020613C000008B501F004
:103EE000C3F818B10138024B53F8200008BD00BFD9
:103EF000D43D0020D0B1820718D138B50478BCB9C0
:103F0000C28C0346C0785AB1DD6A01F069F9FF2816
:103F100010D04DB12946084800F000FC204638BDBD
:103F200001F05EF9FF2805D0002038BD80207047E1
:103F3000802038BD812038BD10320020F8B5EFF365
:103F400005848CB9EFF31484E40702D41F4C247861
:103F500064B1DFF888C000DFF8BD0B463046391D7C
:103F600001F0DAF8044640BB0020F8BD0028FBD081
:103F70000668002EF8D04768FB1C062BF4D8C268F0
:103F80000D460446002AE8D01146114800F0A2FB75
:103F900006460028E8D06268E1682068043242EAF8
:103FA00001212B46324601F0B7F8044628B93146C4
:103FB000074800F0B3FB2046F8BD601E054B064ADB
:103FC00053F82000836A5A63F8BD00BFD93E002031
:103FD00010320020D43D0020613C0000613E000012
:103FE00010B5EFF305841CB9DFF808C000DF10BD81
:103FF000002010BDDD3E000010B5EFF305841CB9B4
:10400000DFF808C000DF10BD822010BDF53E0000C3
:10401000A0B103689BB143688BB101290ED830B4BD
:104020000A4C24686CB11C795CB9012559711D7169
:104030001C60C3E9042030BC1846704700231846B2
:1040400070470023184630BC704700BFE03D002099
:10405000820727D130B3002951D0F8B5314B1A6807
:10406000002312F1FF3643F1FF3704464FF47A7014
:10407000E0FB016730463946FCF78CFF2379012BC2
:1040800012D0022B0CD1284D2A684AB1944238D064
:10409000114602E09C4228D019460B68002BF9D14A
:1040A0008120F8BD802070471F4DE06002232A6800
:1040B0002371002A2AD09668B04206D22CE09D686F
:1040C0008D420BD808462E461A461368811B002BDA
:1040D000F5D12360A16014600020F8BDA16099684B
:1040E0002360081A06449E60F5E723680B60236886
:1040F000002BE0D09968A66831449960D9E7862002
:10410000704723682B600BB11A46F3E70023A060C9
:1041100023602C600020F8BDA06093682260181A0C
:104120009060F6E7F8990000DC3E0020830704D198
:1041300030B1D0E904131868704700200146704779
:10414000014670472DE9F8432E4F3C68002C37D0CC
:10415000A368013BA360002B32D1DFF8AC90266846
:10416000D9F800503E6025B195F80080B8F1010FF4
:1041700017D00420FFF74EFCA2609A682360551BFD
:1041800065449D600460DEB1B368CBB9D9F80050D6
:1041900033683B60002DECD02A78012AE9D13446FF
:1041A0001E46284600F0ACFB0028E2D028462146F7
:1041B00000F0AAFB6379012B04D084F80480E2E7C5
:1041C000BDE8F8833868E56890B1D0F808C0654567
:1041D00006D211E099689142CED815468C46184611
:1041E0000368A5EB0C02002BF4D12360A260C9E7A1
:1041F0002060A5603C60C6E7A560836820605D1B09
:104200008560F7E7DC3E0020043E002030B5EFF388
:1042100005840CBBEFF31484E40702D4124C247819
:104220002CB1DFF84CC000DF0346184630BDC0B1EA
:104230000368002BF9D04368002BF6D001290ED873
:104240000A4D2D6845B11D794DB901241D60597184
:10425000C3E904201C71E8E70023184630BD23465B
:10426000E3E70346E1E700BFD93E0020E03D002040
:104270001140000010B5EFF305841CB9DFF808C049
:1042800000DF10BD822010BD5140000008B50B4D6D
:10429000EFF305804FF0FF310028F9D12868DFF8EF
:1042A00020C000DF1028F3D10846DFF818C000DF77
:1042B00004460028ECD00846A047E9E7043E002069
:1042C000A94400002D41000010B570B183070CD146
:1042D000037853B90B0C1B043BB9034688B21C8B03
:1042E000D97800F029FD204610BD4FF0004420464B
:1042F00010BD00BF10B570B183070CD1037853B95E
:104300000B0C1B043BB9034688B21C8BD97800F018
:104310003FFD204610BD4FF00044204610BD00BFB9
:104320002DE9F0414FEA10484FEA0848B8F1000F74
:1043300048D10D46044640B380B291B14A1C5DD0CD
:10434000344B994263D8344B1A684FF6FE714FF4E0
:104350007A73561E03FB0563B3FBF2F38B4200D85E
:1043600099B2012200F0C6FC022844D0002D14BFEF
:1043700040240024002001460E460F4645462046B4
:10438000294632463B46BDE8F08159B34B1C38D034
:10439000204B994238D8204B1A684FF6FE714FF4E3
:1043A0007A73501E03FB0505B5FBF2F58D4200D86C
:1043B000A9B200224FF6FF7000F09CFC02280BD03F
:1043C0004024D7E7002586242E462F46204629463E
:1043D00032463B46BDE8F081104B1B680824B3F819
:1043E0001A80C7E742464FF6FF7000F083FC0228B0
:1043F000F2D04446BEE7A0460824BBE74FF6FF7163
:10440000AFE74FF6FF71D4E74FF6FE71D1E74FF6F5
:10441000FE71A6E700093D00F89900001C3F00204E
:1044200070B5EFF305852DB9DFF830C000DF044625
:10443000204670BD044668B183070BD103784BB9A1
:104440000B0C1B0433B988B2E178248B00F0ACFC70
:10445000204670BD4FF00044204670BDC9420000A8
:1044600010B5EFF305841CB9DFF80CC000DF10BDF8
:104470004FF0004010BD0000F542000070B504464A
:10448000EFF305854DB908461146DFF818C000DF87
:10449000C4E90001A260204670BD8223036020466B
:1044A00070BD000021430000F0B5034685B0002830
:1044B0003AD00278012A2AD10C4600293ED04A1C63
:1044C00049D0264A91422CD8254A11684FF47A7572
:1044D000481E4FF6FE7205FB0404B4FBF1F494424F
:1044E00000D8A2B2184602A900F0B6F9012830D0CF
:1044F0000020024603461020029904460D46164647
:104500001F462046294632463B4605B0F0BD0025F1
:1045100080242E462F462046294632463B4605B08B
:10452000F0BD4FF6FE72DDE70546064607468024DD
:104530002046294632463B4605B0F0BD0A4602A950
:1045400000F08AF90128D3D1002002460346204614
:10455000D2E74024F8E74FF6FF72C3E700093D00B9
:10456000F8990000274B2DE9F047C58CD3F800904F
:10457000C66AAD0808BFC9F38D0506EB850463075D
:1045800048BF043C8046A4F140074FF080738A4640
:1045900044F8081C44F8043C38463822002102F054
:1045A00001FFD8F81C3044F8203C19F0805F3B46EE
:1045B000C8F82870C8F830A01FD0112D1DD9103DA3
:1045C0006D08012D12D06FF03702A2EBC502144422
:1045D0004FF0CC3243F8042C43F8082DA342F9D114
:1045E000C5EB457507EBC50303F108073B1F9E426A
:1045F0003CBF4FF0CC3347F8043C034B3360BDE87D
:10460000F08700BFEC990000A52E5AE290F8252013
:10461000836A12B1603319607047203319607047A4
:1046200010B490F82540836A2CB16033C3E90012BE
:104630005DF8044B70472033C3E900125DF8044B6A
:10464000704700BF084B1B68DA0107D5074B1B6892
:10465000DB0703D5064B1B68002B00DB7047054BBF
:1046600001221A70704700BFFCED00E0800E00E0F0
:10467000000E00E0E03E002010B4094C2368002B3F
:10468000FCD0036B064A23601368002BFCD0C37870
:104690005DF8044B43EA01239BB21380704700BFCF
:1046A0007C0000E0034A1368002BFCD0C0B21070FD
:1046B000704700BF7C0000E0034648B1072907D9D6
:1046C00004390022084418605A5010465A60704756
:1046D00001207047F0B1F1B10B3170B4036821F0E3
:1046E000030603E01968184649B10B4644680219ED
:1046F0009D1AAE42F6D82CB9466000F10801084672
:1047000070BC704702F10801C2E90036026070BC5B
:104710000846704701460846704700BFC0B1B9B1AE
:10472000083988421DD010B404689CB1A1421CD045
:10473000236823B90EE01A681C465AB11346994201
:10474000F9D15CB11B68236000205DF8044B704711
:104750000120704701205DF8044B7047002058602D
:10476000F3E7034600205860704723460446E9E714
:10477000002A30B41FDB033222F003020C24BAB14A
:1047800013198B4214D8044401448D1AA3189D4276
:10479000C0E90041826015D3002100E0034698186B
:1047A000854263501144F9D20020186030BC704734
:1047B000012030BC704722F00042073222F007028D
:1047C0001024DCE72346EFE7EFF3108372B60268AC
:1047D00003F001030AB11168016003B962B6104623
:1047E000704700BF81420DD343688B420AD9EFF373
:1047F000108372B602680A60016013F0010003D1F1
:1048000062B670470120704700207047426882B14D
:1048100010B500F01DF9044600F032FA0121617074
:104820002046FFF7F3FE21460448BDE8104000F0A3
:10483000E7B8428801324280704700BFE83E00205E
:104840001039002389080122C18102808370C0E9E8
:1048500001338381704700BF38B5838904467BB933
:1048600015465AB1254A4368116823B300F0C8F8C9
:104870002846082100F0D0FB012038BD012038BDBA
:104880004389C289181D01339BB254F82000086087
:104890009A42638104BF00236381636813B1637824
:1048A000022B0ED0EFF3108372B6A389013BA381D4
:1048B00062B6002038BD01224160C1E9013042707A
:1048C000D6E7204600F0C4F800210546FFF79EFE1B
:1048D0002389E289E869191D01339BB29A4244F8A1
:1048E0002100238104BF00232381284600F0C8F95A
:1048F000284600F055FB002038BD00BF1C3F0020BB
:10490000C2898089101A704708B500F0D1F9BDE856
:10491000084000F083BA00BF426870B503464AB150
:104920004578022D0E4604463DD0032D1AD0012DA8
:1049300030D070BD8489C08984425AD2188904302D
:1049400043F82010EFF3108172B6998901319981F3
:1049500062B61989D889013189B288421981E8D1B2
:104960001A8170BD0846FFF72FFF05460028E0D0EA
:10497000204600F06DF829460446FFF747FE012364
:104980006370204600F07CF921461C48BDE8704069
:1049900000F036B800F05CF8044632461021FFF70C
:1049A0003FFE6570EDE700F053F800210546FFF784
:1049B0002DFE2389EA69043344F82320EFF31083A2
:1049C00072B6A3890133A38162B62389E2890133D8
:1049D0009BB29A42238104BF0023238101232846EE
:1049E0006B7000F04DF929460448BDE8704000F0B6
:1049F00007B80320BDE87040FFF70CB8E83E002080
:104A000030B4057842688C78013DEDB2EAB1937814
:104A1000A34204D20FE0987884420ED81A46536815
:104A2000002BF8D10023022D4B60516000D90022E9
:104A30008A6030BC704713460246022D4B605160BD
:104A4000F5D8996030BC8A6070470246EAE700BF3B
:104A500002784368013A59684160022A07D811B1C7
:104A6000002288605A6000229A601846704700222F
:104A70005A601846704700BF034B5A6842600022D4
:104A800058608260704700BFE83E0020816830B403
:104A900000292FD00B780A461BB992681378002B97
:104AA000FBD044684C604568546805B1A960013B7F
:104AB0008578D9B2002C3AD0A378AB4204D20FE06B
:104AC0009A7895420ED81C466368002BF8D10023D3
:104AD0000229436060600AD90023836030BC7047BC
:104AE00023461446022943606060F5D898608460CC
:104AF00030BC70474378012BF0D10E494C68A0427E
:104B00000DD04CB1626890420FD02AB153689842E0
:104B100006D01A46002AF9D10B78064AC7E70A469A
:104B2000456855600B78034AC1E72246F8E714460A
:104B3000CDE700BFE83E002070B4164EF36823B303
:104B4000B58AA9422A4602D821E0A4B123469D8A0B
:104B5000DC682A449142F8D895B2C460D860C26833
:104B6000036102B110616A1A82829A8A551B294434
:104B7000998270BC7047891A89B20022C26070BCE9
:104B8000D86003619982828270473346F5E71C46FC
:104B90003346E2E7003F00202DE9F0432A4DEB6861
:104BA000002B4AD0A88A013880B2A882002844D1BC
:104BB000264F274A3E78B2F800E0013EF6B2B846EA
:104BC0004FF0010C9A6832B15968516011B15968BF
:104BD0008A60586098607A689C78002A2FD0917813
:104BE000A14205D21EE091F802904C451CD80A461D
:104BF00051680029F7D1022E5860536000D9002275
:104C00005C789A60042C998A02D1DA8A72449A827A
:104C1000DA6883F801C06AB11561C3E9030081B99C
:104C20001346CFE711464246022E59605360E6D83C
:104C30008B60E5E7A982EA601A61BDE8F08342462D
:104C4000D9E7A982EA60F8E7003F0020E83E0020AB
:104C5000E43E002083682BB142685A60426842B14A
:104C600093607047054B5A68904203D01346002A60
:104C7000F9D1704742685A60704700BFE83E002093
:104C800003699BB1C268DA6062B1998A10B4848A00
:104C900021449982002413610023C46003615DF8FC
:104CA000044B70479A82002303617047704700BF2E
:104CB00030B40F4BDC78EFF3108272B69A789442DE
:104CC00008D9551C1A789D70551CAC4214BFEDB222
:104CD00000251D7062B6DC78944205D903EBC2034F
:104CE000C3E9010130BC7047022030BCFEF792BE20
:104CF000503D002038B50F4B1C68238B00EA03059C
:104D000052B1A8420BD006250A46608329461046B8
:104D100000F082F9012038BD35B90525F4E723EA12
:104D200000002083022038BD23EA00002083658331
:104D3000022038BD1C3F00200139144B10B553F838
:104D4000214044B1218B6378628B0843062B20837A
:104D500018D0052B00D010BD10EA0203FBD06383EE
:104D600020EA020020832046FFF78AFF0123204625
:104D70006370628B0821FFF753FC2046BDE81040AA
:104D800000F00EB932EA0003EAD010BDD43D002095
:104D90000139044B53F821301BB11A8B22EA00026F
:104DA0001A837047D43D002008B50139064B53F8EB
:104DB00021303BB101461846FFF77AFFBDE80840B5
:104DC00000F02CB808BD00BFD43D002038B5038BDF
:104DD0004278458B1943062A018319D0052A00D051
:104DE00038BD11EA0503FBD0438321EA05010446DF
:104DF0000183FFF745FF012320466370628B082182
:104E0000FFF70EFC21460448BDE83840FFF7F8BD27
:104E100035EA0103E9D038BDE83E0020054B1A7899
:104E200022B9054B4FF080521A60704701229A70E8
:104E3000704700BF340E002004ED00E038B5234B6E
:104E4000234C186801234370FFF716FE6378A2789D
:104E50001D46C2B104EBC5014B681A78184662B30F
:104E6000012A2ED0FFF7D2FCE3780135AB4212D0F5
:104E7000EFF3108372B6A378013BA37062B6A378F8
:104E8000002BE7D1EBB213486370FFF7E1FDBDE8FB
:104E9000384000F073B8EFF3108372B6A378013B8B
:104EA000A37062B6A578002DECD0002504EBC501F7
:104EB0004B681A781846002AD2D10989FFF786FF75
:104EC000D2E78968FFF728FDCEE700BF1C3F00202E
:104ED000503D0020E83E00200A4A0B490B480C4B8D
:104EE00010B414680C600B4A002407210460196098
:104EF00013685DF8044B43F07F434FF0FF301360BD
:104F0000704700BFF099000014E000E018E000E0F6
:104F100010E000E020ED00E0704700BF08B50B4B4B
:104F2000186801234370FFF7A7FDFEF78BFD084AC1
:104F3000136801331360FFF72FFEFFF703F90548ED
:104F4000FFF786FDBDE8084000F018B81C3F0020C0
:104F5000E43E0020E83E0020064B1B68D3E90A32FD
:104F60009A4203D81268044B9A4202D00120FEF7FD
:104F700051BD70471C3F0020A52E5AE2064A074B40
:104F800012785860022141702AB11B68984202D001
:104F9000C078FFF787BB7047E03E00201C3F002031
:104FA00038B500B3194D82780446286883789A4250
:104FB00011D9FFF761FD164A2B68127801200221F2
:104FC00058706C606170DAB1A34219D0E078BDE826
:104FD0003840FFF767BB0123637021460D48BDE8E9
:104FE0003840FFF70DBD0B48FFF732FD084A074B6D
:104FF000127858600221417012B11B68984200D1AA
:1050000038BDC078BDE83840FFF74CBB1C3F0020DE
:10501000E03E0020E83E002000B9704738B54FF66A
:10502000FF720E4D90420C462B6804D00146184684
:10503000FFF782FD2B685C700948FFF709FD094BFB
:1050400068601B78022242703BB12B68984204D002
:10505000C078BDE83840FFF725BB38BD1C3F0020B5
:10506000E83E0020E03E0020024B186800B1C07806
:10507000704700BF1C3F002038B5C0B1214B1B88D2
:10508000834237D30138204B53F82040002C31D0D5
:105090001E4DA1702B6884F824109C420CD0204631
:1050A000FFF7F4FC6378012B26D0002038BD174DA4
:1050B0002B68997083F82410154C626892788A42A4
:1050C000F3D919462046FFF79BFC2B6801225A7042
:1050D0002046FFF7BDFC0F4B68601B780222427030
:1050E000002BE2D02B689842DFD0C078FFF7DAFAC5
:1050F000002038BDFF2038BD0548FFF7A9FCFFF7A9
:105100004FFFD2E7E8990000D43D00201C3F00206B
:10511000E83E0020E03E00202DE9F04111F0FF0FB5
:105120000D460646294890461F4608BF0135FFF741
:105130004BFB044660B30023C5F30F214FF480728C
:10514000EDB2C0F82C80C761C184857080F824500E
:1051500002800362C0E90133C0E90333C0E90533CB
:1051600080F82530C1B120463146FFF7FBF9184BD6
:10517000188868B1174E33682BB33246012303E019
:1051800052F8041F69B12B46984203F10105F7D18B
:1051900000252846BDE8F0810F48FFF715FBE062C7
:1051A000E1E7E9B20D4A46F823401378E1702BB9E4
:1051B0002046FFF7F5FE2846BDE8F0810121204694
:1051C000FFF75AFAF4E701210D46EBE7580F0020EC
:1051D000E8990000D43D002000100020E03E0020AF
:1051E0002DE9F84F664E346800285ED0E37883429C
:1051F0005BD0644B1B888342C0F0BF80471EDFF842
:1052000098B15BF82790B9F1000F00F0B6804846DE
:10521000FFF720FD4846FFF733FDD9F8204044B39F
:105220006368DFF86CA14FF001082046DBB1FFF79F
:105230000FFC00210546FFF7E9F92846FFF720FD9E
:1052400085F8018029465046FFF7DAFBE2682B6AB1
:10525000E360A560A4F802802C6252B11446204697
:105260006368002BE3D1E2686380C4E90233002A5B
:10527000F4D1454DD9F82C10444800244BF8274070
:10528000FFF7B0FA2B78C9F82C40002B70D1404CB6
:1052900040484946FFF7A6FA636831689A788B78E8
:1052A0009A425ED80020BDE8F88F00236370FBF7B8
:1052B00032F9A062FFF750FE33681C6A34B36368AA
:1052C000DFF8CC8001272046CBB1FFF7C1FB0021DE
:1052D0000546FFF79BF92846FFF7D2FC6F70294679
:1052E0004046FFF78DFBE2682B6AE360A5606780AC
:1052F0002C6252B1144620466368002BE5D1E26867
:105300006380C4E90233002AF4D13368DA78D96AB9
:1053100021481D4D531E002440F823401B48FFF731
:1053200061FA33682A78DC62AAB91A481946FFF78D
:1053300059FA002416483460FFF78AFB2B78706016
:1053400002224270002BADD033689842AAD0C078B8
:10535000FFF7A8F9A6E718462146FFF78DF933684D
:10536000E3E7012320464B70FFF74AFB2046E3E7C3
:1053700021464846FFF780F989E7FF20BDE8F88F0E
:105380001C3F0020E8990000E03E002000100020B3
:10539000E83E0020580F0020D43D002038B5FFF72C
:1053A00051F9244B1A8822B192000021224801F0C1
:1053B000F9FF224B22481988224D3422FFF7D8F9F1
:1053C000214A224B12881968214842F00042FFF717
:1053D000CFF9204B204A186811880822FFF7C8F936
:1053E0001E4B1B480024C5E90034C5E90244C5E949
:1053F0000444AC61C5E90844FFF7E6F91849E862DE
:105400002846FFF7AFF8174B174A1D601748184991
:10541000127802236B70174BC270042204800A704A
:105420001A704C60C3E903449C82BDE83840FEF723
:1054300007BB00BFE8990000D43D0020FC990000A4
:10544000580F0020243F0020EC990000009A000033
:1054500000100020083E0020249A0000000100FFF8
:105460000D3A00001C3F0020089A0000503D00202B
:10547000E83E0020003F002008B51E4B1A6842F4A9
:105480007F021A601B681B0203F07F43DB43B3FA01
:1054900083F3194A194812680168DBB2C3F10803A3
:1054A000C2F30222934298BF531C6FF0807202FA3B
:1054B00003F303F07F4321F07F4213430360FFF7C0
:1054C0000BFD0F4B0028186012DB00F1604000F567
:1054D0006440FF2202701A6853099B0003F1604385
:1054E00003F5614302F01F02012101FA02F21A6082
:1054F00008BD00BF20ED00E00CED00E01CED00E079
:10550000183F002073B50D4B0D4801251D604FF06D
:10551000854440F20113ADF8003000260099266062
:1055200000F092FD4FF48073ADF804300199044807
:1055300000F06CFDA661256002B070BD00079042CE
:105540000000044010B5044628B90A4B0A4A0B482B
:10555000CC2101F0E5FB4378FF2B09D000F044FAA1
:1055600063780133DBB2637000F034FA002010BDC1
:105570000120FCE7389A00007E9A00003D9A000066
:105580000A4B00229A6403F140029A6303F130024D
:105590009A6203F120029A6103F110029A60044AB0
:1055A0001360044BC3E90233704700BF103E002074
:1055B0000C3E0020603E002008B5FFF7E1FFFFF73A
:1055C000A1FF002008BD0000094B1A7802F03F023D
:1055D00042F080021A709A79C2F38102022AFAD14B
:1055E000044B00221A76044A1378002BFCD1704732
:1055F00000400640A000C842D400C842F0B50446AE
:1056000089B00E46417A4148059100F08BFE23880F
:105610000599042B30D1802801D1FFF7D5FF07ABC6
:10562000CDE9006322796379E179384800F0B8FE6A
:10563000374B01221A71374BA2781A71E2781A702F
:10564000A3786BB12379012B03D161792F4800F046
:1056500091FD2F4A2379304913700A789342FCD187
:10566000A07A00284DD02948E37A627B217B00F0A4
:10567000D1FD002009B0F0BD082B1CD1802803D13A
:105680000591FFF7A1FF0599214B204D00221A71CA
:1056900007ABCDE90163E3790093A279237A284629
:1056A00000F0DEFE2B7803F03F032B70AB7913F094
:1056B0000C0FFBD1BFE7802B26D1802807AF0DD080
:1056C000134B1248059100221A71E3790093CDE93A
:1056D0000167237AA27900F0C3FE05990B4D637B25
:1056E00000930197237B0022284600F031FF2B789E
:1056F00003F03F032B70AB79C3F38103032BFAD183
:1057000099E7064B1876B5E70120B3E7004006405D
:105710002000C8420000C842C000C8428000C84201
:10572000064B0A7853F8203003F1424303F5801307
:105730005B011A774A781A75704700BF649B0000B6
:1057400010B50C4630B11D4B1D4A1E4840F24F218A
:1057500001F0E6FA8B7A012B17D10B79002B4B79EC
:10576000897914BF08220022002B14BF04230023D0
:105770000029E17941EA020141EA0301124B18BF15
:1057800002200143186800F04FFF04F10B010020D4
:10579000FFF7C6FFA37A227A617A0C4800F097FDE2
:1057A000628940F201139A4203D1094A1378002B0F
:1057B000FCD0084B22681A60002010BDFE9A000041
:1057C0003A9B0000A39A0000649B00000040064042
:1057D000C400C842843E002008B530B1124B134AC1
:1057E00013484FF4307101F09BFA124B01221A60FA
:1057F000114B0A681A60114A114B126813445B017D
:105800000A7A186840B93AB108795861487918613C
:105810008879D860C87998601A604A7A82F0010263
:105820005A60002008BD00BF1C9B00004C9B00007C
:10583000A39A0000F4079042883E0020CC9F00000D
:10584000110010C2054B00F0E002134400F01F00ED
:1058500003449B0001221A60704700BF4001A4105E
:1058600008B5064800F012FD054A41F24403D3583A
:105870001B0F0133B0FBF3F008BD00BF0040064032
:105880000070044037B5044628B91D4B1D4A1E4818
:10589000722101F045FA1D4D0423009301220223D9
:1058A0002846002100F0C7FE19492046FFF7A6FE52
:1058B000637D0093237DE27CA17C284600F0BBFE43
:1058C00041F20401237C6A581B0422F4403203F4A1
:1058D000403313436B50637C2A689B0422F44022BC
:1058E00003F4402313432B6004F10E010020FFF763
:1058F00017FFFFF7B5FF074B1860002003B030BD5E
:10590000689B0000379C0000779B000000700440FB
:10591000195900006004002008B5FFF7A1FF40F608
:10592000B833B0FBF3F0013800D208BD00BFFAE78E
:1059300008B5064800F0AAFC054A41F24403D358D2
:10594000C3F303630133B0FBF3F008BD004006402E
:105950000070044008B50146044800F081FE044B85
:1059600008B9186808BD5868FCE700BF007004401B
:10597000703E0020042808B506D9064B064A0748A1
:1059800040F2B12101F0CCF9054B185CBDE80840AC
:10599000FFF758BFC59B0000529C0000779B00009A
:1059A000899C0000032808B506D9064B064A07481B
:1059B00040F2463101F0B4F9054B185CBDE80840EF
:1059C000FFF740BFFF9B00006C9C0000779B00002E
:1059D000859C0000034A13681BB1013B136003B9A7
:1059E00062B67047783E002072B6024A13680133EF
:1059F00013607047783E0020094B1B6853F8203035
:105A000063B10109074A52F8212000F00F00107716
:105A1000D0775A6812B1197B98681047704700BF59
:105A20007C3E0020909C0000204B2DE9F74F53F85E
:105A30002040DFF87C90D4F82CB00601002798466F
:105A40004FF0020ABBF1000F01D0102F09D104F171
:105A5000424404F5801464010023636103B0BDE88F
:105A6000F08F1BF0010F1DD0FDB2BB19002229469B
:105A70002046019300F0F2FED9F80020019B52F875
:105A800023307BB13544C5F3031205F00F0558F8F8
:105A900022201577D5775A6883F80CA012B1197BAC
:105AA000986890474FEA5B0B0137CBE7909C00006A
:105AB0007C3E00200368C90001F0180123F01803A0
:105AC000194301607047000008B5034A034B0448BE
:105AD0004FF40C7101F024F9C49E0000949C000066
:105AE000BC9C00000328F8B505460E4605D9334B8B
:105AF000334A3921334801F013F9334B53F820402E
:105B00001CB9324B2E4A3A21F4E7314B53F820703E
:105B1000FFF748FF204600F01FFF0023FFB21A46A0
:105B2000BB4236DB204600F0ADFE7168204600F037
:105B3000C7FED4F88420337822F01F0203F01F033D
:105B40001343C4F88430B3784BB3224B23445B0136
:105B500001229A617378D4F884209B0122F0C0025C
:105B6000DBB21343C4F884301B4B5957012201F0B8
:105B70001F039A404B099B0003F1604303F5614307
:105B80000029C3F8802110DA144B154A5D2115480D
:105B9000B1E704EBC3010133CA600A61C0E7124BED
:105BA00023445B0101229A60D4E7552903DD0F4BA2
:105BB0000B4A5E21EBE71A600020F8BDF39C000061
:105BC000ED9E0000119D0000409F0000539D0000CD
:105BD000309F0000740010C2509F00006F9D0000B5
:105BE000DB9E00007E9D0000540010C2C29D00009C
:105BF000032808B506D90D4B0D4A4FF48D710D4899
:105C000001F08EF821B90C4B094A40F21B11F6E75E
:105C10000A4B53F82000036802F0070223F0070341
:105C20001A43074B0260197008BD00BFF39C0000C7
:105C3000FA9E0000119D0000ED9D0000409F0000B5
:105C4000803E0020032810B506D9124B124A134893
:105C500040F22B1101F064F8114A52F820301B6811
:105C6000012403F007039C400E4B1B78022B0AD043
:105C7000032B03D0012B0AD0002010BDFFF76AFED2
:105C8000B0FBF4F0F9E7084800F011FBF8E7FFF784
:105C90004FFEF5E7F39C00000B9F0000119D0000F4
:105CA000409F0000803E00200040064003282DE970
:105CB000F04780460F46154606D9654B654A4FF4B6
:105CC000B571654801F02CF88B68642B04D9634BDF
:105CD000604A40F26B11F4E7614B53F820309A426E
:105CE00004DB604B5B4A4FF4B671EAE75E4B5F4EF4
:105CF00053F8204004F1424303F580135B01002078
:105D0000D861204600F056FE3378002B00F09D80CD
:105D10005FFA88F0FFF796FFDFF85491E36C03EA2F
:105D20000903E3643B78032B2BD0042B48D0022BD0
